{
  "_format": "hh-sol-artifact-1",
  "contractName": "BoiledNoodlesBNB",
  "sourceName": "contracts/BNBMiner.sol",
  "abi": [
    {
      "inputs": [],
      "stateMutability": "nonpayable",
      "type": "constructor"
    },
    {
      "anonymous": false,
      "inputs": [
        {
          "indexed": false,
          "internalType": "uint256",
          "name": "timestamp",
          "type": "uint256"
        },
        {
          "indexed": false,
          "internalType": "address",
          "name": "_from",
          "type": "address"
        },
        {
          "indexed": false,
          "internalType": "uint256",
          "name": "_amount",
          "type": "uint256"
        }
      ],
      "name": "BuyEggs",
      "type": "event"
    },
    {
      "anonymous": false,
      "inputs": [
        {
          "indexed": false,
          "internalType": "uint256",
          "name": "timestamp",
          "type": "uint256"
        },
        {
          "indexed": false,
          "internalType": "address",
          "name": "_from",
          "type": "address"
        },
        {
          "indexed": false,
          "internalType": "uint256",
          "name": "_newMiners",
          "type": "uint256"
        }
      ],
      "name": "HatchEggs",
      "type": "event"
    },
    {
      "anonymous": false,
      "inputs": [
        {
          "indexed": true,
          "internalType": "address",
          "name": "previousOwner",
          "type": "address"
        },
        {
          "indexed": true,
          "internalType": "address",
          "name": "newOwner",
          "type": "address"
        }
      ],
      "name": "OwnershipTransferred",
      "type": "event"
    },
    {
      "anonymous": false,
      "inputs": [
        {
          "indexed": false,
          "internalType": "uint256",
          "name": "timestamp",
          "type": "uint256"
        },
        {
          "indexed": false,
          "internalType": "address",
          "name": "_from",
          "type": "address"
        },
        {
          "indexed": false,
          "internalType": "uint256",
          "name": "_eggsValues",
          "type": "uint256"
        }
      ],
      "name": "SellEggs",
      "type": "event"
    },
    {
      "inputs": [
        {
          "internalType": "address",
          "name": "adr",
          "type": "address"
        }
      ],
      "name": "beanRewards",
      "outputs": [
        {
          "internalType": "uint256",
          "name": "",
          "type": "uint256"
        }
      ],
      "stateMutability": "view",
      "type": "function"
    },
    {
      "inputs": [
        {
          "internalType": "address",
          "name": "ref",
          "type": "address"
        }
      ],
      "name": "buyEggs",
      "outputs": [],
      "stateMutability": "payable",
      "type": "function"
    },
    {
      "inputs": [
        {
          "internalType": "uint256",
          "name": "eth",
          "type": "uint256"
        },
        {
          "internalType": "uint256",
          "name": "contractBalance",
          "type": "uint256"
        }
      ],
      "name": "calculateEggBuy",
      "outputs": [
        {
          "internalType": "uint256",
          "name": "",
          "type": "uint256"
        }
      ],
      "stateMutability": "view",
      "type": "function"
    },
    {
      "inputs": [
        {
          "internalType": "uint256",
          "name": "eth",
          "type": "uint256"
        }
      ],
      "name": "calculateEggBuySimple",
      "outputs": [
        {
          "internalType": "uint256",
          "name": "",
          "type": "uint256"
        }
      ],
      "stateMutability": "view",
      "type": "function"
    },
    {
      "inputs": [
        {
          "internalType": "uint256",
          "name": "eggs",
          "type": "uint256"
        }
      ],
      "name": "calculateEggSell",
      "outputs": [
        {
          "internalType": "uint256",
          "name": "",
          "type": "uint256"
        }
      ],
      "stateMutability": "view",
      "type": "function"
    },
    {
      "inputs": [
        {
          "internalType": "address",
          "name": "",
          "type": "address"
        }
      ],
      "name": "claimedEggs",
      "outputs": [
        {
          "internalType": "uint256",
          "name": "",
          "type": "uint256"
        }
      ],
      "stateMutability": "view",
      "type": "function"
    },
    {
      "inputs": [],
      "name": "getBalance",
      "outputs": [
        {
          "internalType": "uint256",
          "name": "",
          "type": "uint256"
        }
      ],
      "stateMutability": "view",
      "type": "function"
    },
    {
      "inputs": [
        {
          "internalType": "address",
          "name": "adr",
          "type": "address"
        }
      ],
      "name": "getEggsSinceLastHatch",
      "outputs": [
        {
          "internalType": "uint256",
          "name": "",
          "type": "uint256"
        }
      ],
      "stateMutability": "view",
      "type": "function"
    },
    {
      "inputs": [
        {
          "internalType": "address",
          "name": "adr",
          "type": "address"
        }
      ],
      "name": "getMyEggs",
      "outputs": [
        {
          "internalType": "uint256",
          "name": "",
          "type": "uint256"
        }
      ],
      "stateMutability": "view",
      "type": "function"
    },
    {
      "inputs": [
        {
          "internalType": "address",
          "name": "adr",
          "type": "address"
        }
      ],
      "name": "getMyMiners",
      "outputs": [
        {
          "internalType": "uint256",
          "name": "",
          "type": "uint256"
        }
      ],
      "stateMutability": "view",
      "type": "function"
    },
    {
      "inputs": [
        {
          "internalType": "address",
          "name": "ref",
          "type": "address"
        }
      ],
      "name": "hatchEggs",
      "outputs": [],
      "stateMutability": "nonpayable",
      "type": "function"
    },
    {
      "inputs": [
        {
          "internalType": "address",
          "name": "",
          "type": "address"
        }
      ],
      "name": "hatcheryMiners",
      "outputs": [
        {
          "internalType": "uint256",
          "name": "",
          "type": "uint256"
        }
      ],
      "stateMutability": "view",
      "type": "function"
    },
    {
      "inputs": [
        {
          "internalType": "address",
          "name": "",
          "type": "address"
        }
      ],
      "name": "lastHatch",
      "outputs": [
        {
          "internalType": "uint256",
          "name": "",
          "type": "uint256"
        }
      ],
      "stateMutability": "view",
      "type": "function"
    },
    {
      "inputs": [],
      "name": "marketEggs",
      "outputs": [
        {
          "internalType": "uint256",
          "name": "",
          "type": "uint256"
        }
      ],
      "stateMutability": "view",
      "type": "function"
    },
    {
      "inputs": [],
      "name": "owner",
      "outputs": [
        {
          "internalType": "address",
          "name": "",
          "type": "address"
        }
      ],
      "stateMutability": "view",
      "type": "function"
    },
    {
      "inputs": [
        {
          "internalType": "address",
          "name": "",
          "type": "address"
        }
      ],
      "name": "referrals",
      "outputs": [
        {
          "internalType": "address",
          "name": "",
          "type": "address"
        }
      ],
      "stateMutability": "view",
      "type": "function"
    },
    {
      "inputs": [],
      "name": "renounceOwnership",
      "outputs": [],
      "stateMutability": "nonpayable",
      "type": "function"
    },
    {
      "inputs": [],
      "name": "seedMarket",
      "outputs": [],
      "stateMutability": "payable",
      "type": "function"
    },
    {
      "inputs": [],
      "name": "sellEggs",
      "outputs": [],
      "stateMutability": "nonpayable",
      "type": "function"
    },
    {
      "inputs": [
        {
          "internalType": "uint256",
          "name": "beans",
          "type": "uint256"
        }
      ],
      "name": "setBeansInCan",
      "outputs": [],
      "stateMutability": "nonpayable",
      "type": "function"
    },
    {
      "inputs": [
        {
          "internalType": "address",
          "name": "newOwner",
          "type": "address"
        }
      ],
      "name": "transferOwnership",
      "outputs": [],
      "stateMutability": "nonpayable",
      "type": "function"
    }
  ],
  "bytecode": "0x6080604052622bf200600155612710600255611388600390815560045560066005819055805460ff1916905534801561003757600080fd5b50600080546001600160a01b031916339081178255604051909182917f8be0079c531659141344cd1fd0a4f28419497f9722a3daafe3b4186f6b6457e0908290a35060068054610100600160a81b03191633610100021790556110f48061009f6000396000f3fe60806040526004361061016a5760003560e01c806372670361116100cb5780639ca423b31161007f578063db66386511610059578063db66386514610414578063ee208f5014610427578063f2fde38b1461044757600080fd5b80639ca423b314610391578063a507abee146103d4578063d7c8843b146103f457600080fd5b80637e56fde5116100b05780637e56fde5146103055780638da5cb5b146103255780638e3163271461037157600080fd5b806372670361146102ab57806379532aa9146102d857600080fd5b80633c5f07cb11610122578063467ece7911610107578063467ece79146102265780634b634b0614610253578063715018a61461029657600080fd5b80633c5f07cb146101fe5780633ec862a81461020657600080fd5b80632e9392bb116101535780632e9392bb146101b15780632ef6a743146101c75780633955f0fe146101e757600080fd5b806312065fe01461016f57806326fd842214610191575b600080fd5b34801561017b57600080fd5b50475b6040519081526020015b60405180910390f35b34801561019d57600080fd5b5061017e6101ac366004610f77565b610467565b3480156101bd57600080fd5b5061017e600b5481565b3480156101d357600080fd5b5061017e6101e2366004610f99565b61047d565b3480156101f357600080fd5b506101fc6104bb565b005b6101fc61064c565b34801561021257600080fd5b506101fc610221366004610f99565b610710565b34801561023257600080fd5b5061017e610241366004610f99565b60096020526000908152604090205481565b34801561025f57600080fd5b5061017e61026e366004610f99565b73ffffffffffffffffffffffffffffffffffffffff1660009081526007602052604090205490565b3480156102a257600080fd5b506101fc610972565b3480156102b757600080fd5b5061017e6102c6366004610f99565b60086020526000908152604090205481565b3480156102e457600080fd5b5061017e6102f3366004610f99565b60076020526000908152604090205481565b34801561031157600080fd5b5061017e610320366004610fcf565b610a62565b34801561033157600080fd5b5060005473ffffffffffffffffffffffffffffffffffffffff165b60405173ffffffffffffffffffffffffffffffffffffffff9091168152602001610188565b34801561037d57600080fd5b5061017e61038c366004610fcf565b610a6e565b34801561039d57600080fd5b5061034c6103ac366004610f99565b600a6020526000908152604090205473ffffffffffffffffffffffffffffffffffffffff1681565b3480156103e057600080fd5b5061017e6103ef366004610f99565b610a7d565b34801561040057600080fd5b5061017e61040f366004610f99565b610aac565b6101fc610422366004610f99565b610b37565b34801561043357600080fd5b506101fc610442366004610fcf565b610c9d565b34801561045357600080fd5b506101fc610462366004610f99565b610d23565b60006104768383600b54610db0565b9392505050565b73ffffffffffffffffffffffffffffffffffffffff81166000908152600860205260408120546104b5906104b084610aac565b610df0565b92915050565b60065460ff1661052c576040517f08c379a000000000000000000000000000000000000000000000000000000000815260206004820152601b60248201527f436f6e7472616374206973206e6f7420696e697469616c697a6564000000000060448201526064015b60405180910390fd5b60006105373361047d565b9050600061054482610a6e565b9050600061055182610dfc565b33600090815260086020908152604080832083905560099091529020429055600b549091506105809084610df0565b600b5560065460405161010090910473ffffffffffffffffffffffffffffffffffffffff16906108fc8315029083906000818181858888f193505050501580156105ce573d6000803e3d6000fd5b50336108fc6105dd8484610e0d565b6040518115909202916000818181858888f19350505050158015610605573d6000803e3d6000fd5b50604080514281523360208201529081018390527f23e164924758956f8f89b93268d295c08af7da65cf0e995f7f01bacdc5c328d0906060015b60405180910390a1505050565b60005473ffffffffffffffffffffffffffffffffffffffff1633146106cd576040517f08c379a000000000000000000000000000000000000000000000000000000000815260206004820181905260248201527f4f776e61626c653a2063616c6c6572206973206e6f7420746865206f776e65726044820152606401610523565b600b54156106da57600080fd5b600680547fffffffffffffffffffffffffffffffffffffffffffffffffffffffffffffff001660011790556419254d3800600b55565b60065460ff1661077c576040517f08c379a000000000000000000000000000000000000000000000000000000000815260206004820152601b60248201527f436f6e7472616374206973206e6f7420696e697469616c697a656400000000006044820152606401610523565b73ffffffffffffffffffffffffffffffffffffffff811633141561079e575060005b336000908152600a602052604090205473ffffffffffffffffffffffffffffffffffffffff161580156107f55750336000818152600a602052604090205473ffffffffffffffffffffffffffffffffffffffff1614155b1561084857336000908152600a6020526040902080547fffffffffffffffffffffffff00000000000000000000000000000000000000001673ffffffffffffffffffffffffffffffffffffffff83161790555b60006108533361047d565b9050600061086382600154610e19565b336000908152600760205260409020549091506108809082610df0565b33600090815260076020908152604080832093909355600880825283832083905560098252838320429055600a82528383205473ffffffffffffffffffffffffffffffffffffffff168352905220546005546108ed91906104b0906108e6908690610e25565b6064610e19565b336000908152600a602090815260408083205473ffffffffffffffffffffffffffffffffffffffff1683526008909152902055600b54610932906104b0846005610e19565b600b55604080514281523360208201529081018290527fb72ff0c52d5480086bfd9a5609dfb15b5071bdbd3d3c7f51746ac548b9d194b79060600161063f565b60005473ffffffffffffffffffffffffffffffffffffffff1633146109f3576040517f08c379a000000000000000000000000000000000000000000000000000000000815260206004820181905260248201527f4f776e61626c653a2063616c6c6572206973206e6f7420746865206f776e65726044820152606401610523565b6000805460405173ffffffffffffffffffffffffffffffffffffffff909116907f8be0079c531659141344cd1fd0a4f28419497f9722a3daafe3b4186f6b6457e0908390a3600080547fffffffffffffffffffffffff0000000000000000000000000000000000000000169055565b60006104b58247610467565b60006104b582600b5447610db0565b600080610a898361047d565b905080610a995750600092915050565b6000610aa482610a6e565b949350505050565b600080610b03600154610afe42600960008873ffffffffffffffffffffffffffffffffffffffff1673ffffffffffffffffffffffffffffffffffffffff16815260200190815260200160002054610e0d565b610e31565b73ffffffffffffffffffffffffffffffffffffffff8416600090815260076020526040902054909150610476908290610e25565b60065460ff16610ba3576040517f08c379a000000000000000000000000000000000000000000000000000000000815260206004820152601b60248201527f436f6e7472616374206973206e6f7420696e697469616c697a656400000000006044820152606401610523565b6000610bb3346101ac4734610e0d565b9050610bc781610bc283610dfc565b610e0d565b90506000610bd434610dfc565b600654604051919250610100900473ffffffffffffffffffffffffffffffffffffffff16906108fc8315029083906000818181858888f19350505050158015610c21573d6000803e3d6000fd5b5033600090815260086020526040902054610c3c9083610df0565b33600081815260086020908152604091829020939093558051428152928301919091523482820152517f266042f631629bf79ea9b75639a891d32be06dcf36e64f0bbf2ceeb14c4841c19181900360600190a1610c9883610710565b505050565b60005473ffffffffffffffffffffffffffffffffffffffff163314610d1e576040517f08c379a000000000000000000000000000000000000000000000000000000000815260206004820181905260248201527f4f776e61626c653a2063616c6c6572206973206e6f7420746865206f776e65726044820152606401610523565b600155565b60005473ffffffffffffffffffffffffffffffffffffffff163314610da4576040517f08c379a000000000000000000000000000000000000000000000000000000000815260206004820181905260248201527f4f776e61626c653a2063616c6c6572206973206e6f7420746865206f776e65726044820152606401610523565b610dad81610e47565b50565b6000610aa4610dc160025484610e25565b610deb6003546104b0610de5610dd96002548a610e25565b6104b06003548c610e25565b89610e19565b610e19565b60006104768284611017565b60006104b56108e683600454610e25565b6000610476828461102f565b60006104768284611046565b60006104768284611081565b6000818310610e405781610476565b5090919050565b73ffffffffffffffffffffffffffffffffffffffff8116610eea576040517f08c379a000000000000000000000000000000000000000000000000000000000815260206004820152602660248201527f4f776e61626c653a206e6577206f776e657220697320746865207a65726f206160448201527f64647265737300000000000000000000000000000000000000000000000000006064820152608401610523565b6000805460405173ffffffffffffffffffffffffffffffffffffffff808516939216917f8be0079c531659141344cd1fd0a4f28419497f9722a3daafe3b4186f6b6457e091a3600080547fffffffffffffffffffffffff00000000000000000000000000000000000000001673ffffffffffffffffffffffffffffffffffffffff92909216919091179055565b60008060408385031215610f8a57600080fd5b50508035926020909101359150565b600060208284031215610fab57600080fd5b813573ffffffffffffffffffffffffffffffffffffffff8116811461047657600080fd5b600060208284031215610fe157600080fd5b5035919050565b7f4e487b7100000000000000000000000000000000000000000000000000000000600052601160045260246000fd5b6000821982111561102a5761102a610fe8565b500190565b60008282101561104157611041610fe8565b500390565b60008261107c577f4e487b7100000000000000000000000000000000000000000000000000000000600052601260045260246000fd5b500490565b6000817fffffffffffffffffffffffffffffffffffffffffffffffffffffffffffffffff04831182151516156110b9576110b9610fe8565b50029056fea2646970667358221220037c9784f4353a4aa0ba1a9ee5266fe2c3386764b0df97985e0064baf53d698c64736f6c63430008090033",
  "linkReferences": {},
  "deployedLinkReferences": {}
}