{
  "_format": "hh-sol-artifact-1",
  "contractName": "SpaceDiamondBNB",
  "sourceName": "contracts/Miners/BNBMiner.sol",
  "abi": [
    {
      "inputs": [],
      "stateMutability": "nonpayable",
      "type": "constructor"
    },
    {
      "anonymous": false,
      "inputs": [
        {
          "indexed": false,
          "internalType": "uint256",
          "name": "_timestamp",
          "type": "uint256"
        },
        {
          "indexed": false,
          "internalType": "address",
          "name": "_from",
          "type": "address"
        },
        {
          "indexed": false,
          "internalType": "uint256",
          "name": "_amount",
          "type": "uint256"
        }
      ],
      "name": "BuyEggs",
      "type": "event"
    },
    {
      "anonymous": false,
      "inputs": [
        {
          "indexed": false,
          "internalType": "uint256",
          "name": "_timestamp",
          "type": "uint256"
        },
        {
          "indexed": false,
          "internalType": "address",
          "name": "_from",
          "type": "address"
        },
        {
          "indexed": false,
          "internalType": "uint256",
          "name": "_newMiners",
          "type": "uint256"
        }
      ],
      "name": "HatchEggs",
      "type": "event"
    },
    {
      "anonymous": false,
      "inputs": [
        {
          "indexed": true,
          "internalType": "address",
          "name": "previousOwner",
          "type": "address"
        },
        {
          "indexed": true,
          "internalType": "address",
          "name": "newOwner",
          "type": "address"
        }
      ],
      "name": "OwnershipTransferred",
      "type": "event"
    },
    {
      "anonymous": false,
      "inputs": [
        {
          "indexed": false,
          "internalType": "uint256",
          "name": "_timestamp",
          "type": "uint256"
        },
        {
          "indexed": false,
          "internalType": "uint256",
          "name": "_lotteryValue",
          "type": "uint256"
        }
      ],
      "name": "ReceivedFromLottery",
      "type": "event"
    },
    {
      "anonymous": false,
      "inputs": [
        {
          "indexed": false,
          "internalType": "uint256",
          "name": "_timestamp",
          "type": "uint256"
        },
        {
          "indexed": false,
          "internalType": "address",
          "name": "_from",
          "type": "address"
        },
        {
          "indexed": false,
          "internalType": "uint256",
          "name": "_eggsValues",
          "type": "uint256"
        }
      ],
      "name": "SellEggs",
      "type": "event"
    },
    {
      "inputs": [],
      "name": "CashBack",
      "outputs": [],
      "stateMutability": "nonpayable",
      "type": "function"
    },
    {
      "inputs": [
        {
          "internalType": "address",
          "name": "adr",
          "type": "address"
        }
      ],
      "name": "beanRewards",
      "outputs": [
        {
          "internalType": "uint256",
          "name": "",
          "type": "uint256"
        }
      ],
      "stateMutability": "view",
      "type": "function"
    },
    {
      "inputs": [
        {
          "internalType": "address",
          "name": "ref",
          "type": "address"
        }
      ],
      "name": "buyEggs",
      "outputs": [],
      "stateMutability": "payable",
      "type": "function"
    },
    {
      "inputs": [
        {
          "internalType": "uint256",
          "name": "eth",
          "type": "uint256"
        },
        {
          "internalType": "uint256",
          "name": "contractBalance",
          "type": "uint256"
        }
      ],
      "name": "calculateEggBuy",
      "outputs": [
        {
          "internalType": "uint256",
          "name": "",
          "type": "uint256"
        }
      ],
      "stateMutability": "view",
      "type": "function"
    },
    {
      "inputs": [
        {
          "internalType": "uint256",
          "name": "eth",
          "type": "uint256"
        }
      ],
      "name": "calculateEggBuySimple",
      "outputs": [
        {
          "internalType": "uint256",
          "name": "",
          "type": "uint256"
        }
      ],
      "stateMutability": "view",
      "type": "function"
    },
    {
      "inputs": [
        {
          "internalType": "uint256",
          "name": "eggs",
          "type": "uint256"
        }
      ],
      "name": "calculateEggSell",
      "outputs": [
        {
          "internalType": "uint256",
          "name": "",
          "type": "uint256"
        }
      ],
      "stateMutability": "view",
      "type": "function"
    },
    {
      "inputs": [
        {
          "internalType": "address",
          "name": "",
          "type": "address"
        }
      ],
      "name": "claimedEggs",
      "outputs": [
        {
          "internalType": "uint256",
          "name": "",
          "type": "uint256"
        }
      ],
      "stateMutability": "view",
      "type": "function"
    },
    {
      "inputs": [],
      "name": "getBalance",
      "outputs": [
        {
          "internalType": "uint256",
          "name": "",
          "type": "uint256"
        }
      ],
      "stateMutability": "view",
      "type": "function"
    },
    {
      "inputs": [
        {
          "internalType": "address",
          "name": "adr",
          "type": "address"
        }
      ],
      "name": "getEggsSinceLastHatch",
      "outputs": [
        {
          "internalType": "uint256",
          "name": "",
          "type": "uint256"
        }
      ],
      "stateMutability": "view",
      "type": "function"
    },
    {
      "inputs": [
        {
          "internalType": "address",
          "name": "adr",
          "type": "address"
        }
      ],
      "name": "getMyEggs",
      "outputs": [
        {
          "internalType": "uint256",
          "name": "",
          "type": "uint256"
        }
      ],
      "stateMutability": "view",
      "type": "function"
    },
    {
      "inputs": [
        {
          "internalType": "address",
          "name": "adr",
          "type": "address"
        }
      ],
      "name": "getMyMiners",
      "outputs": [
        {
          "internalType": "uint256",
          "name": "",
          "type": "uint256"
        }
      ],
      "stateMutability": "view",
      "type": "function"
    },
    {
      "inputs": [
        {
          "internalType": "address",
          "name": "ref",
          "type": "address"
        }
      ],
      "name": "hatchEggs",
      "outputs": [],
      "stateMutability": "nonpayable",
      "type": "function"
    },
    {
      "inputs": [
        {
          "internalType": "address",
          "name": "",
          "type": "address"
        }
      ],
      "name": "hatcheryMiners",
      "outputs": [
        {
          "internalType": "uint256",
          "name": "",
          "type": "uint256"
        }
      ],
      "stateMutability": "view",
      "type": "function"
    },
    {
      "inputs": [
        {
          "internalType": "address",
          "name": "",
          "type": "address"
        }
      ],
      "name": "lastHatch",
      "outputs": [
        {
          "internalType": "uint256",
          "name": "",
          "type": "uint256"
        }
      ],
      "stateMutability": "view",
      "type": "function"
    },
    {
      "inputs": [],
      "name": "lotteryAddr",
      "outputs": [
        {
          "internalType": "address",
          "name": "",
          "type": "address"
        }
      ],
      "stateMutability": "view",
      "type": "function"
    },
    {
      "inputs": [],
      "name": "lotteryPays",
      "outputs": [],
      "stateMutability": "payable",
      "type": "function"
    },
    {
      "inputs": [],
      "name": "marketEggs",
      "outputs": [
        {
          "internalType": "uint256",
          "name": "",
          "type": "uint256"
        }
      ],
      "stateMutability": "view",
      "type": "function"
    },
    {
      "inputs": [],
      "name": "owner",
      "outputs": [
        {
          "internalType": "address",
          "name": "",
          "type": "address"
        }
      ],
      "stateMutability": "view",
      "type": "function"
    },
    {
      "inputs": [
        {
          "internalType": "address",
          "name": "",
          "type": "address"
        }
      ],
      "name": "referrals",
      "outputs": [
        {
          "internalType": "address",
          "name": "",
          "type": "address"
        }
      ],
      "stateMutability": "view",
      "type": "function"
    },
    {
      "inputs": [],
      "name": "renounceOwnership",
      "outputs": [],
      "stateMutability": "nonpayable",
      "type": "function"
    },
    {
      "inputs": [],
      "name": "seedMarket",
      "outputs": [],
      "stateMutability": "payable",
      "type": "function"
    },
    {
      "inputs": [],
      "name": "sellEggs",
      "outputs": [],
      "stateMutability": "nonpayable",
      "type": "function"
    },
    {
      "inputs": [
        {
          "internalType": "uint256",
          "name": "beans",
          "type": "uint256"
        }
      ],
      "name": "setBeansInCan",
      "outputs": [],
      "stateMutability": "nonpayable",
      "type": "function"
    },
    {
      "inputs": [
        {
          "internalType": "address",
          "name": "_lotteryAddr",
          "type": "address"
        }
      ],
      "name": "setLotteryAddr",
      "outputs": [],
      "stateMutability": "nonpayable",
      "type": "function"
    },
    {
      "inputs": [
        {
          "internalType": "address",
          "name": "newOwner",
          "type": "address"
        }
      ],
      "name": "transferOwnership",
      "outputs": [],
      "stateMutability": "nonpayable",
      "type": "function"
    }
  ],
  "bytecode": "0x6080604052620a242760015561271060025561138860035560056004819055600690819055805460ff1916905534801561003857600080fd5b50600080546001600160a01b031916339081178255604051909182917f8be0079c531659141344cd1fd0a4f28419497f9722a3daafe3b4186f6b6457e0908290a35060068054610100600160a81b03191633610100021790556112e7806100a06000396000f3fe6080604052600436106101965760003560e01c806372670361116100e15780639ca423b31161008a578063d7c8843b11610064578063d7c8843b1461048e578063db663865146104ae578063ee208f50146104c1578063f2fde38b146104e157600080fd5b80639ca423b314610416578063a47cc4e014610459578063a507abee1461046e57600080fd5b80638b82d348116100bb5780638b82d348146103ab5780638da5cb5b146103cb5780638e316327146103f657600080fd5b8063726703611461033157806379532aa91461035e5780637e56fde51461038b57600080fd5b80633c5f07cb116101435780634b634b061161011d5780634b634b06146102d15780636c31000a14610314578063715018a61461031c57600080fd5b80633c5f07cb1461027c5780633ec862a814610284578063467ece79146102a457600080fd5b80632ef6a743116101745780632ef6a743146101f35780632f5b1564146102135780633955f0fe1461026557600080fd5b806312065fe01461019b57806326fd8422146101bd5780632e9392bb146101dd575b600080fd5b3480156101a757600080fd5b50475b6040519081526020015b60405180910390f35b3480156101c957600080fd5b506101aa6101d836600461116a565b610501565b3480156101e957600080fd5b506101aa600b5481565b3480156101ff57600080fd5b506101aa61020e36600461118c565b610517565b34801561021f57600080fd5b50600c546102409073ffffffffffffffffffffffffffffffffffffffff1681565b60405173ffffffffffffffffffffffffffffffffffffffff90911681526020016101b4565b34801561027157600080fd5b5061027a610555565b005b61027a6106cc565b34801561029057600080fd5b5061027a61029f36600461118c565b610776565b3480156102b057600080fd5b506101aa6102bf36600461118c565b60096020526000908152604090205481565b3480156102dd57600080fd5b506101aa6102ec36600461118c565b73ffffffffffffffffffffffffffffffffffffffff1660009081526007602052604090205490565b61027a6109be565b34801561032857600080fd5b5061027a610a85565b34801561033d57600080fd5b506101aa61034c36600461118c565b60086020526000908152604090205481565b34801561036a57600080fd5b506101aa61037936600461118c565b60076020526000908152604090205481565b34801561039757600080fd5b506101aa6103a63660046111c2565b610b5b565b3480156103b757600080fd5b5061027a6103c636600461118c565b610b67565b3480156103d757600080fd5b5060005473ffffffffffffffffffffffffffffffffffffffff16610240565b34801561040257600080fd5b506101aa6104113660046111c2565b610c15565b34801561042257600080fd5b5061024061043136600461118c565b600a6020526000908152604090205473ffffffffffffffffffffffffffffffffffffffff1681565b34801561046557600080fd5b5061027a610c24565b34801561047a57600080fd5b506101aa61048936600461118c565b610cdb565b34801561049a57600080fd5b506101aa6104a936600461118c565b610d0a565b61027a6104bc36600461118c565b610d95565b3480156104cd57600080fd5b5061027a6104dc3660046111c2565b610ee1565b3480156104ed57600080fd5b5061027a6104fc36600461118c565b610f4d565b60006105108383600b54610fbd565b9392505050565b73ffffffffffffffffffffffffffffffffffffffff811660009081526008602052604081205461054f9061054a84610d0a565b610ffd565b92915050565b60065460ff166105ac5760405162461bcd60e51b815260206004820152601b60248201527f436f6e7472616374206973206e6f7420696e697469616c697a6564000000000060448201526064015b60405180910390fd5b60006105b733610517565b905060006105c482610c15565b905060006105d182611009565b33600090815260086020908152604080832083905560099091529020429055600b549091506106009084610ffd565b600b5560065460405161010090910473ffffffffffffffffffffffffffffffffffffffff16906108fc8315029083906000818181858888f1935050505015801561064e573d6000803e3d6000fd5b50336108fc61065d848461101a565b6040518115909202916000818181858888f19350505050158015610685573d6000803e3d6000fd5b50604080514281523360208201529081018390527f23e164924758956f8f89b93268d295c08af7da65cf0e995f7f01bacdc5c328d0906060015b60405180910390a1505050565b60005473ffffffffffffffffffffffffffffffffffffffff1633146107335760405162461bcd60e51b815260206004820181905260248201527f4f776e61626c653a2063616c6c6572206973206e6f7420746865206f776e657260448201526064016105a3565b600b541561074057600080fd5b600680547fffffffffffffffffffffffffffffffffffffffffffffffffffffffffffffff001660011790556419254d3800600b55565b60065460ff166107c85760405162461bcd60e51b815260206004820152601b60248201527f436f6e7472616374206973206e6f7420696e697469616c697a6564000000000060448201526064016105a3565b73ffffffffffffffffffffffffffffffffffffffff81163314156107ea575060005b336000908152600a602052604090205473ffffffffffffffffffffffffffffffffffffffff161580156108415750336000818152600a602052604090205473ffffffffffffffffffffffffffffffffffffffff1614155b1561089457336000908152600a6020526040902080547fffffffffffffffffffffffff00000000000000000000000000000000000000001673ffffffffffffffffffffffffffffffffffffffff83161790555b600061089f33610517565b905060006108af82600154611026565b336000908152600760205260409020549091506108cc9082610ffd565b33600090815260076020908152604080832093909355600880825283832083905560098252838320429055600a82528383205473ffffffffffffffffffffffffffffffffffffffff16835290522054600554610939919061054a90610932908690611032565b6064611026565b336000908152600a602090815260408083205473ffffffffffffffffffffffffffffffffffffffff1683526008909152902055600b5461097e9061054a846005611026565b600b55604080514281523360208201529081018290527fb72ff0c52d5480086bfd9a5609dfb15b5071bdbd3d3c7f51746ac548b9d194b7906060016106bf565b600c5473ffffffffffffffffffffffffffffffffffffffff163314610a4b5760405162461bcd60e51b815260206004820152603060248201527f4d696e65722063616e206f6e6c792062652066756e6465642077697468696e2060448201527f6c6f747465727920636f6e74726163740000000000000000000000000000000060648201526084016105a3565b604080514281523460208201527f7456a043b6134f74145db1ad3fb6623def80a2dccf47f03e6fd3dec99c6659b4910160405180910390a1565b60005473ffffffffffffffffffffffffffffffffffffffff163314610aec5760405162461bcd60e51b815260206004820181905260248201527f4f776e61626c653a2063616c6c6572206973206e6f7420746865206f776e657260448201526064016105a3565b6000805460405173ffffffffffffffffffffffffffffffffffffffff909116907f8be0079c531659141344cd1fd0a4f28419497f9722a3daafe3b4186f6b6457e0908390a3600080547fffffffffffffffffffffffff0000000000000000000000000000000000000000169055565b600061054f8247610501565b60005473ffffffffffffffffffffffffffffffffffffffff163314610bce5760405162461bcd60e51b815260206004820181905260248201527f4f776e61626c653a2063616c6c6572206973206e6f7420746865206f776e657260448201526064016105a3565b600c80547fffffffffffffffffffffffff00000000000000000000000000000000000000001673ffffffffffffffffffffffffffffffffffffffff92909216919091179055565b600061054f82600b5447610fbd565b60005473ffffffffffffffffffffffffffffffffffffffff163314610c8b5760405162461bcd60e51b815260206004820181905260248201527f4f776e61626c653a2063616c6c6572206973206e6f7420746865206f776e657260448201526064016105a3565b60065460405173ffffffffffffffffffffffffffffffffffffffff61010090920491909116904780156108fc02916000818181858888f19350505050158015610cd8573d6000803e3d6000fd5b50565b600080610ce783610517565b905080610cf75750600092915050565b6000610d0282610c15565b949350505050565b600080610d61600154610d5c42600960008873ffffffffffffffffffffffffffffffffffffffff1673ffffffffffffffffffffffffffffffffffffffff1681526020019081526020016000205461101a565b61103e565b73ffffffffffffffffffffffffffffffffffffffff8416600090815260076020526040902054909150610510908290611032565b60065460ff16610de75760405162461bcd60e51b815260206004820152601b60248201527f436f6e7472616374206973206e6f7420696e697469616c697a6564000000000060448201526064016105a3565b6000610df7346101d8473461101a565b9050610e0b81610e0683611009565b61101a565b90506000610e1834611009565b600654604051919250610100900473ffffffffffffffffffffffffffffffffffffffff16906108fc8315029083906000818181858888f19350505050158015610e65573d6000803e3d6000fd5b5033600090815260086020526040902054610e809083610ffd565b33600081815260086020908152604091829020939093558051428152928301919091523482820152517f266042f631629bf79ea9b75639a891d32be06dcf36e64f0bbf2ceeb14c4841c19181900360600190a1610edc83610776565b505050565b60005473ffffffffffffffffffffffffffffffffffffffff163314610f485760405162461bcd60e51b815260206004820181905260248201527f4f776e61626c653a2063616c6c6572206973206e6f7420746865206f776e657260448201526064016105a3565b600155565b60005473ffffffffffffffffffffffffffffffffffffffff163314610fb45760405162461bcd60e51b815260206004820181905260248201527f4f776e61626c653a2063616c6c6572206973206e6f7420746865206f776e657260448201526064016105a3565b610cd881611054565b6000610d02610fce60025484611032565b610ff860035461054a610ff2610fe66002548a611032565b61054a6003548c611032565b89611026565b611026565b6000610510828461120a565b600061054f61093283600454611032565b60006105108284611222565b60006105108284611239565b60006105108284611274565b600081831061104d5781610510565b5090919050565b73ffffffffffffffffffffffffffffffffffffffff81166110dd5760405162461bcd60e51b815260206004820152602660248201527f4f776e61626c653a206e6577206f776e657220697320746865207a65726f206160448201527f646472657373000000000000000000000000000000000000000000000000000060648201526084016105a3565b6000805460405173ffffffffffffffffffffffffffffffffffffffff808516939216917f8be0079c531659141344cd1fd0a4f28419497f9722a3daafe3b4186f6b6457e091a3600080547fffffffffffffffffffffffff00000000000000000000000000000000000000001673ffffffffffffffffffffffffffffffffffffffff92909216919091179055565b6000806040838503121561117d57600080fd5b50508035926020909101359150565b60006020828403121561119e57600080fd5b813573ffffffffffffffffffffffffffffffffffffffff8116811461051057600080fd5b6000602082840312156111d457600080fd5b5035919050565b7f4e487b7100000000000000000000000000000000000000000000000000000000600052601160045260246000fd5b6000821982111561121d5761121d6111db565b500190565b600082821015611234576112346111db565b500390565b60008261126f577f4e487b7100000000000000000000000000000000000000000000000000000000600052601260045260246000fd5b500490565b6000817fffffffffffffffffffffffffffffffffffffffffffffffffffffffffffffffff04831182151516156112ac576112ac6111db565b50029056fea2646970667358221220b6f1447ca11b5e96972531b8df4a74bc84fce617f83cfc4d4f13ed454fb9ad1f64736f6c63430008090033",
  "linkReferences": {},
  "deployedLinkReferences": {}
}