{
  "_format": "hh-sol-artifact-1",
  "contractName": "SpaceDiamondETH",
  "sourceName": "contracts/ETHMiner.sol",
  "abi": [
    {
      "inputs": [],
      "stateMutability": "nonpayable",
      "type": "constructor"
    },
    {
      "anonymous": false,
      "inputs": [
        {
          "indexed": false,
          "internalType": "uint256",
          "name": "timestamp",
          "type": "uint256"
        },
        {
          "indexed": false,
          "internalType": "address",
          "name": "_from",
          "type": "address"
        },
        {
          "indexed": false,
          "internalType": "uint256",
          "name": "_amount",
          "type": "uint256"
        }
      ],
      "name": "BuyEggs",
      "type": "event"
    },
    {
      "anonymous": false,
      "inputs": [
        {
          "indexed": false,
          "internalType": "uint256",
          "name": "timestamp",
          "type": "uint256"
        },
        {
          "indexed": false,
          "internalType": "address",
          "name": "_from",
          "type": "address"
        },
        {
          "indexed": false,
          "internalType": "uint256",
          "name": "_newMiners",
          "type": "uint256"
        }
      ],
      "name": "HatchEggs",
      "type": "event"
    },
    {
      "anonymous": false,
      "inputs": [
        {
          "indexed": true,
          "internalType": "address",
          "name": "previousOwner",
          "type": "address"
        },
        {
          "indexed": true,
          "internalType": "address",
          "name": "newOwner",
          "type": "address"
        }
      ],
      "name": "OwnershipTransferred",
      "type": "event"
    },
    {
      "anonymous": false,
      "inputs": [
        {
          "indexed": false,
          "internalType": "uint256",
          "name": "timestamp",
          "type": "uint256"
        },
        {
          "indexed": false,
          "internalType": "address",
          "name": "_from",
          "type": "address"
        },
        {
          "indexed": false,
          "internalType": "uint256",
          "name": "_eggsValues",
          "type": "uint256"
        }
      ],
      "name": "SellEggs",
      "type": "event"
    },
    {
      "inputs": [
        {
          "internalType": "address",
          "name": "adr",
          "type": "address"
        }
      ],
      "name": "beanRewards",
      "outputs": [
        {
          "internalType": "uint256",
          "name": "",
          "type": "uint256"
        }
      ],
      "stateMutability": "view",
      "type": "function"
    },
    {
      "inputs": [
        {
          "internalType": "address",
          "name": "ref",
          "type": "address"
        },
        {
          "internalType": "uint256",
          "name": "amount",
          "type": "uint256"
        }
      ],
      "name": "buyEggs",
      "outputs": [],
      "stateMutability": "nonpayable",
      "type": "function"
    },
    {
      "inputs": [
        {
          "internalType": "uint256",
          "name": "eth",
          "type": "uint256"
        },
        {
          "internalType": "uint256",
          "name": "contractBalance",
          "type": "uint256"
        }
      ],
      "name": "calculateEggBuy",
      "outputs": [
        {
          "internalType": "uint256",
          "name": "",
          "type": "uint256"
        }
      ],
      "stateMutability": "view",
      "type": "function"
    },
    {
      "inputs": [
        {
          "internalType": "uint256",
          "name": "eth",
          "type": "uint256"
        }
      ],
      "name": "calculateEggBuySimple",
      "outputs": [
        {
          "internalType": "uint256",
          "name": "",
          "type": "uint256"
        }
      ],
      "stateMutability": "view",
      "type": "function"
    },
    {
      "inputs": [
        {
          "internalType": "uint256",
          "name": "eggs",
          "type": "uint256"
        }
      ],
      "name": "calculateEggSell",
      "outputs": [
        {
          "internalType": "uint256",
          "name": "",
          "type": "uint256"
        }
      ],
      "stateMutability": "view",
      "type": "function"
    },
    {
      "inputs": [],
      "name": "devAddress",
      "outputs": [
        {
          "internalType": "address",
          "name": "",
          "type": "address"
        }
      ],
      "stateMutability": "view",
      "type": "function"
    },
    {
      "inputs": [],
      "name": "getBalance",
      "outputs": [
        {
          "internalType": "uint256",
          "name": "",
          "type": "uint256"
        }
      ],
      "stateMutability": "view",
      "type": "function"
    },
    {
      "inputs": [
        {
          "internalType": "address",
          "name": "adr",
          "type": "address"
        }
      ],
      "name": "getEggsSinceLastHatch",
      "outputs": [
        {
          "internalType": "uint256",
          "name": "",
          "type": "uint256"
        }
      ],
      "stateMutability": "view",
      "type": "function"
    },
    {
      "inputs": [
        {
          "internalType": "address",
          "name": "adr",
          "type": "address"
        }
      ],
      "name": "getMyEggs",
      "outputs": [
        {
          "internalType": "uint256",
          "name": "",
          "type": "uint256"
        }
      ],
      "stateMutability": "view",
      "type": "function"
    },
    {
      "inputs": [
        {
          "internalType": "address",
          "name": "adr",
          "type": "address"
        }
      ],
      "name": "getMyMiners",
      "outputs": [
        {
          "internalType": "uint256",
          "name": "",
          "type": "uint256"
        }
      ],
      "stateMutability": "view",
      "type": "function"
    },
    {
      "inputs": [
        {
          "internalType": "address",
          "name": "ref",
          "type": "address"
        }
      ],
      "name": "hatchEggs",
      "outputs": [],
      "stateMutability": "nonpayable",
      "type": "function"
    },
    {
      "inputs": [],
      "name": "owner",
      "outputs": [
        {
          "internalType": "address",
          "name": "",
          "type": "address"
        }
      ],
      "stateMutability": "view",
      "type": "function"
    },
    {
      "inputs": [],
      "name": "renounceOwnership",
      "outputs": [],
      "stateMutability": "nonpayable",
      "type": "function"
    },
    {
      "inputs": [],
      "name": "seedMarket",
      "outputs": [],
      "stateMutability": "nonpayable",
      "type": "function"
    },
    {
      "inputs": [],
      "name": "sellEggs",
      "outputs": [],
      "stateMutability": "nonpayable",
      "type": "function"
    },
    {
      "inputs": [
        {
          "internalType": "uint256",
          "name": "beans",
          "type": "uint256"
        }
      ],
      "name": "setBeansInCan",
      "outputs": [],
      "stateMutability": "nonpayable",
      "type": "function"
    },
    {
      "inputs": [
        {
          "internalType": "uint256",
          "name": "fee",
          "type": "uint256"
        }
      ],
      "name": "setDevFee",
      "outputs": [],
      "stateMutability": "nonpayable",
      "type": "function"
    },
    {
      "inputs": [
        {
          "internalType": "address",
          "name": "newOwner",
          "type": "address"
        }
      ],
      "name": "transferOwnership",
      "outputs": [],
      "stateMutability": "nonpayable",
      "type": "function"
    }
  ],
  "bytecode": "0x6080604052600180546001600160a01b03191673d66c6b4f0be8ce5b39d52e0fd1344c389929b378179055620a242760035561271060045561138860059081556006556007805460ff1916905534801561005857600080fd5b50600080546001600160a01b031916339081178255604051909182917f8be0079c531659141344cd1fd0a4f28419497f9722a3daafe3b4186f6b6457e0908290a350600280546001600160a01b03191633179055611350806100bb6000396000f3fe608060405234801561001057600080fd5b50600436106101365760003560e01c80634b634b06116100b25780638e31632711610081578063d7c8843b11610066578063d7c8843b146102a1578063ee208f50146102b4578063f2fde38b146102c757600080fd5b80638e3163271461027b578063a507abee1461028e57600080fd5b80634b634b061461020c578063715018a6146102425780637e56fde51461024a5780638da5cb5b1461025d57600080fd5b80633955f0fe116101095780633c5f07cb116100ee5780633c5f07cb146101de5780633ec862a8146101e6578063450edf95146101f957600080fd5b80633955f0fe146101915780633ad10ef61461019957600080fd5b806312065fe01461013b5780631c75b6b21461015657806326fd84221461016b5780632ef6a7431461017e575b600080fd5b6101436102da565b6040519081526020015b60405180910390f35b610169610164366004611160565b610381565b005b610143610179366004611179565b61040c565b61014361018c3660046111c4565b610422565b610169610460565b6002546101b99073ffffffffffffffffffffffffffffffffffffffff1681565b60405173ffffffffffffffffffffffffffffffffffffffff909116815260200161014d565b610169610688565b6101696101f43660046111c4565b6106cb565b6101696102073660046111df565b6108cb565b61014361021a3660046111c4565b73ffffffffffffffffffffffffffffffffffffffff1660009081526008602052604090205490565b610169610b90565b610143610258366004611160565b610c80565b60005473ffffffffffffffffffffffffffffffffffffffff166101b9565b610143610289366004611160565b610d28565b61014361029c3660046111c4565b610dda565b6101436102af3660046111c4565b610dfb565b6101696102c2366004611160565b610e86565b6101696102d53660046111c4565b610f0c565b6001546040517f70a0823100000000000000000000000000000000000000000000000000000000815230600482015260009173ffffffffffffffffffffffffffffffffffffffff16906370a082319060240160206040518083038186803b15801561034457600080fd5b505afa158015610358573d6000803e3d6000fd5b505050506040513d601f19601f8201168201806040525081019061037c9190611209565b905090565b60005473ffffffffffffffffffffffffffffffffffffffff163314610407576040517f08c379a000000000000000000000000000000000000000000000000000000000815260206004820181905260248201527f4f776e61626c653a2063616c6c6572206973206e6f7420746865206f776e657260448201526064015b60405180910390fd5b600655565b600061041b8383600c54610f99565b9392505050565b73ffffffffffffffffffffffffffffffffffffffff811660009081526009602052604081205461045a9061045584610dfb565b610fd9565b92915050565b60075460ff1661046f57600080fd5b600061047a33610422565b9050600061048782610d28565b9050600061049482610fe5565b336000908152600960209081526040808320839055600a9091529020429055600c549091506104c39084610fd9565b600c556001546002546040517fa9059cbb00000000000000000000000000000000000000000000000000000000815273ffffffffffffffffffffffffffffffffffffffff91821660048201526024810184905291169063a9059cbb90604401602060405180830381600087803b15801561053c57600080fd5b505af1158015610550573d6000803e3d6000fd5b505050506040513d601f19601f820116820180604052508101906105749190611222565b5060015473ffffffffffffffffffffffffffffffffffffffff1663a9059cbb3361059e8585610ff6565b6040517fffffffff0000000000000000000000000000000000000000000000000000000060e085901b16815273ffffffffffffffffffffffffffffffffffffffff90921660048301526024820152604401602060405180830381600087803b15801561060957600080fd5b505af115801561061d573d6000803e3d6000fd5b505050506040513d601f19601f820116820180604052508101906106419190611222565b50604080514281523360208201529081018390527f23e164924758956f8f89b93268d295c08af7da65cf0e995f7f01bacdc5c328d0906060015b60405180910390a1505050565b600c541561069557600080fd5b600780547fffffffffffffffffffffffffffffffffffffffffffffffffffffffffffffff001660011790556419254d3800600c55565b60075460ff166106da57600080fd5b73ffffffffffffffffffffffffffffffffffffffff81163314156106fc575060005b336000908152600b602052604090205473ffffffffffffffffffffffffffffffffffffffff161580156107535750336000818152600b602052604090205473ffffffffffffffffffffffffffffffffffffffff1614155b156107a657336000908152600b6020526040902080547fffffffffffffffffffffffff00000000000000000000000000000000000000001673ffffffffffffffffffffffffffffffffffffffff83161790555b60006107b133610422565b905060006107c182600354611002565b336000908152600860205260409020549091506107de9082610fd9565b336000908152600860209081526040808320939093556009808252838320839055600a8252838320429055600b82528383205473ffffffffffffffffffffffffffffffffffffffff168352905220546108469061045561083f85600f61100e565b6064611002565b336000908152600b602090815260408083205473ffffffffffffffffffffffffffffffffffffffff1683526009909152902055600c5461088b90610455846005611002565b600c55604080514281523360208201529081018290527fb72ff0c52d5480086bfd9a5609dfb15b5071bdbd3d3c7f51746ac548b9d194b79060600161067b565b60075460ff166108da57600080fd5b6001546040517f23b872dd0000000000000000000000000000000000000000000000000000000081523360048201523060248201526044810183905273ffffffffffffffffffffffffffffffffffffffff909116906323b872dd90606401602060405180830381600087803b15801561095257600080fd5b505af1158015610966573d6000803e3d6000fd5b505050506040513d601f19601f8201168201806040525081019061098a9190611222565b506001546040517f70a0823100000000000000000000000000000000000000000000000000000000815230600482015260009173ffffffffffffffffffffffffffffffffffffffff16906370a082319060240160206040518083038186803b1580156109f557600080fd5b505afa158015610a09573d6000803e3d6000fd5b505050506040513d601f19601f82011682018060405250810190610a2d9190611209565b90506000610a3f836101798486610ff6565b9050610a5381610a4e83610fe5565b610ff6565b90506000610a6084610fe5565b6001546002546040517fa9059cbb00000000000000000000000000000000000000000000000000000000815273ffffffffffffffffffffffffffffffffffffffff918216600482015260248101849052929350169063a9059cbb90604401602060405180830381600087803b158015610ad857600080fd5b505af1158015610aec573d6000803e3d6000fd5b505050506040513d601f19601f82011682018060405250810190610b109190611222565b5033600090815260096020526040902054610b2b9083610fd9565b336000818152600960209081526040918290209390935580514281529283019190915281018590527f266042f631629bf79ea9b75639a891d32be06dcf36e64f0bbf2ceeb14c4841c19060600160405180910390a1610b89856106cb565b5050505050565b60005473ffffffffffffffffffffffffffffffffffffffff163314610c11576040517f08c379a000000000000000000000000000000000000000000000000000000000815260206004820181905260248201527f4f776e61626c653a2063616c6c6572206973206e6f7420746865206f776e657260448201526064016103fe565b6000805460405173ffffffffffffffffffffffffffffffffffffffff909116907f8be0079c531659141344cd1fd0a4f28419497f9722a3daafe3b4186f6b6457e0908390a3600080547fffffffffffffffffffffffff0000000000000000000000000000000000000000169055565b6001546040517f70a0823100000000000000000000000000000000000000000000000000000000815230600482015260009161045a91849173ffffffffffffffffffffffffffffffffffffffff16906370a082319060240160206040518083038186803b158015610cf057600080fd5b505afa158015610d04573d6000803e3d6000fd5b505050506040513d601f19601f820116820180604052508101906101799190611209565b600c546001546040517f70a0823100000000000000000000000000000000000000000000000000000000815230600482015260009261045a92859273ffffffffffffffffffffffffffffffffffffffff909116906370a082319060240160206040518083038186803b158015610d9d57600080fd5b505afa158015610db1573d6000803e3d6000fd5b505050506040513d601f19601f82011682018060405250810190610dd59190611209565b610f99565b600080610de683610422565b90506000610df382610d28565b949350505050565b600080610e52600354610e4d42600a60008873ffffffffffffffffffffffffffffffffffffffff1673ffffffffffffffffffffffffffffffffffffffff16815260200190815260200160002054610ff6565b61101a565b73ffffffffffffffffffffffffffffffffffffffff841660009081526008602052604090205490915061041b90829061100e565b60005473ffffffffffffffffffffffffffffffffffffffff163314610f07576040517f08c379a000000000000000000000000000000000000000000000000000000000815260206004820181905260248201527f4f776e61626c653a2063616c6c6572206973206e6f7420746865206f776e657260448201526064016103fe565b600355565b60005473ffffffffffffffffffffffffffffffffffffffff163314610f8d576040517f08c379a000000000000000000000000000000000000000000000000000000000815260206004820181905260248201527f4f776e61626c653a2063616c6c6572206973206e6f7420746865206f776e657260448201526064016103fe565b610f9681611030565b50565b6000610df3610faa6004548461100e565b610fd4600554610455610fce610fc26004548a61100e565b6104556005548c61100e565b89611002565b611002565b600061041b8284611273565b600061045a61083f8360065461100e565b600061041b828461128b565b600061041b82846112a2565b600061041b82846112dd565b6000818310611029578161041b565b5090919050565b73ffffffffffffffffffffffffffffffffffffffff81166110d3576040517f08c379a000000000000000000000000000000000000000000000000000000000815260206004820152602660248201527f4f776e61626c653a206e6577206f776e657220697320746865207a65726f206160448201527f646472657373000000000000000000000000000000000000000000000000000060648201526084016103fe565b6000805460405173ffffffffffffffffffffffffffffffffffffffff808516939216917f8be0079c531659141344cd1fd0a4f28419497f9722a3daafe3b4186f6b6457e091a3600080547fffffffffffffffffffffffff00000000000000000000000000000000000000001673ffffffffffffffffffffffffffffffffffffffff92909216919091179055565b60006020828403121561117257600080fd5b5035919050565b6000806040838503121561118c57600080fd5b50508035926020909101359150565b803573ffffffffffffffffffffffffffffffffffffffff811681146111bf57600080fd5b919050565b6000602082840312156111d657600080fd5b61041b8261119b565b600080604083850312156111f257600080fd5b6111fb8361119b565b946020939093013593505050565b60006020828403121561121b57600080fd5b5051919050565b60006020828403121561123457600080fd5b8151801515811461041b57600080fd5b7f4e487b7100000000000000000000000000000000000000000000000000000000600052601160045260246000fd5b6000821982111561128657611286611244565b500190565b60008282101561129d5761129d611244565b500390565b6000826112d8577f4e487b7100000000000000000000000000000000000000000000000000000000600052601260045260246000fd5b500490565b6000817fffffffffffffffffffffffffffffffffffffffffffffffffffffffffffffffff048311821515161561131557611315611244565b50029056fea2646970667358221220b65c47da79cabfcf42d516bad8e14ef12eb0780d3bf14fe46845099269d94b2b64736f6c63430008090033",
  "linkReferences": {},
  "deployedLinkReferences": {}
}