{
  "_format": "hh-sol-artifact-1",
  "contractName": "MinerV1ERC20",
  "sourceName": "contracts/Miners/MinerV1ERC20.sol",
  "abi": [
    {
      "inputs": [],
      "stateMutability": "nonpayable",
      "type": "constructor"
    },
    {
      "anonymous": false,
      "inputs": [
        {
          "indexed": false,
          "internalType": "address",
          "name": "_from",
          "type": "address"
        },
        {
          "indexed": false,
          "internalType": "uint256",
          "name": "_amount",
          "type": "uint256"
        }
      ],
      "name": "BuyEggs",
      "type": "event"
    },
    {
      "anonymous": false,
      "inputs": [
        {
          "indexed": false,
          "internalType": "address",
          "name": "_from",
          "type": "address"
        },
        {
          "indexed": false,
          "internalType": "uint256",
          "name": "_newMiners",
          "type": "uint256"
        }
      ],
      "name": "HatchEggs",
      "type": "event"
    },
    {
      "anonymous": false,
      "inputs": [
        {
          "indexed": true,
          "internalType": "address",
          "name": "previousOwner",
          "type": "address"
        },
        {
          "indexed": true,
          "internalType": "address",
          "name": "newOwner",
          "type": "address"
        }
      ],
      "name": "OwnershipTransferred",
      "type": "event"
    },
    {
      "anonymous": false,
      "inputs": [
        {
          "indexed": false,
          "internalType": "address",
          "name": "_from",
          "type": "address"
        },
        {
          "indexed": false,
          "internalType": "uint256",
          "name": "_lotteryValue",
          "type": "uint256"
        }
      ],
      "name": "ReceivedFromLottery",
      "type": "event"
    },
    {
      "anonymous": false,
      "inputs": [
        {
          "indexed": false,
          "internalType": "address",
          "name": "_from",
          "type": "address"
        },
        {
          "indexed": false,
          "internalType": "uint256",
          "name": "_eggsValues",
          "type": "uint256"
        }
      ],
      "name": "SellEggs",
      "type": "event"
    },
    {
      "inputs": [],
      "name": "CashBack",
      "outputs": [],
      "stateMutability": "nonpayable",
      "type": "function"
    },
    {
      "inputs": [
        {
          "internalType": "address",
          "name": "adr",
          "type": "address"
        }
      ],
      "name": "beanRewards",
      "outputs": [
        {
          "internalType": "uint256",
          "name": "",
          "type": "uint256"
        }
      ],
      "stateMutability": "view",
      "type": "function"
    },
    {
      "inputs": [
        {
          "internalType": "address",
          "name": "ref",
          "type": "address"
        },
        {
          "internalType": "uint256",
          "name": "amount",
          "type": "uint256"
        }
      ],
      "name": "buyEggs",
      "outputs": [],
      "stateMutability": "nonpayable",
      "type": "function"
    },
    {
      "inputs": [
        {
          "internalType": "uint256",
          "name": "eth",
          "type": "uint256"
        },
        {
          "internalType": "uint256",
          "name": "contractBalance",
          "type": "uint256"
        }
      ],
      "name": "calculateEggBuy",
      "outputs": [
        {
          "internalType": "uint256",
          "name": "",
          "type": "uint256"
        }
      ],
      "stateMutability": "view",
      "type": "function"
    },
    {
      "inputs": [
        {
          "internalType": "uint256",
          "name": "eth",
          "type": "uint256"
        }
      ],
      "name": "calculateEggBuySimple",
      "outputs": [
        {
          "internalType": "uint256",
          "name": "",
          "type": "uint256"
        }
      ],
      "stateMutability": "view",
      "type": "function"
    },
    {
      "inputs": [
        {
          "internalType": "uint256",
          "name": "eggs",
          "type": "uint256"
        }
      ],
      "name": "calculateEggSell",
      "outputs": [
        {
          "internalType": "uint256",
          "name": "",
          "type": "uint256"
        }
      ],
      "stateMutability": "view",
      "type": "function"
    },
    {
      "inputs": [
        {
          "internalType": "address",
          "name": "",
          "type": "address"
        }
      ],
      "name": "claimedEggs",
      "outputs": [
        {
          "internalType": "uint256",
          "name": "",
          "type": "uint256"
        }
      ],
      "stateMutability": "view",
      "type": "function"
    },
    {
      "inputs": [],
      "name": "devAddress",
      "outputs": [
        {
          "internalType": "address",
          "name": "",
          "type": "address"
        }
      ],
      "stateMutability": "view",
      "type": "function"
    },
    {
      "inputs": [],
      "name": "getBalance",
      "outputs": [
        {
          "internalType": "uint256",
          "name": "",
          "type": "uint256"
        }
      ],
      "stateMutability": "view",
      "type": "function"
    },
    {
      "inputs": [
        {
          "internalType": "address",
          "name": "adr",
          "type": "address"
        }
      ],
      "name": "getEggsSinceLastHatch",
      "outputs": [
        {
          "internalType": "uint256",
          "name": "",
          "type": "uint256"
        }
      ],
      "stateMutability": "view",
      "type": "function"
    },
    {
      "inputs": [
        {
          "internalType": "address",
          "name": "adr",
          "type": "address"
        }
      ],
      "name": "getMyEggs",
      "outputs": [
        {
          "internalType": "uint256",
          "name": "",
          "type": "uint256"
        }
      ],
      "stateMutability": "view",
      "type": "function"
    },
    {
      "inputs": [
        {
          "internalType": "address",
          "name": "adr",
          "type": "address"
        }
      ],
      "name": "getMyMiners",
      "outputs": [
        {
          "internalType": "uint256",
          "name": "",
          "type": "uint256"
        }
      ],
      "stateMutability": "view",
      "type": "function"
    },
    {
      "inputs": [
        {
          "internalType": "address",
          "name": "ref",
          "type": "address"
        }
      ],
      "name": "hatchEggs",
      "outputs": [],
      "stateMutability": "nonpayable",
      "type": "function"
    },
    {
      "inputs": [
        {
          "internalType": "address",
          "name": "",
          "type": "address"
        }
      ],
      "name": "hatcheryMiners",
      "outputs": [
        {
          "internalType": "uint256",
          "name": "",
          "type": "uint256"
        }
      ],
      "stateMutability": "view",
      "type": "function"
    },
    {
      "inputs": [
        {
          "internalType": "address",
          "name": "",
          "type": "address"
        }
      ],
      "name": "lastHatch",
      "outputs": [
        {
          "internalType": "uint256",
          "name": "",
          "type": "uint256"
        }
      ],
      "stateMutability": "view",
      "type": "function"
    },
    {
      "inputs": [],
      "name": "lotteryAddr",
      "outputs": [
        {
          "internalType": "address",
          "name": "",
          "type": "address"
        }
      ],
      "stateMutability": "view",
      "type": "function"
    },
    {
      "inputs": [
        {
          "internalType": "uint256",
          "name": "_amount",
          "type": "uint256"
        }
      ],
      "name": "lotteryPays",
      "outputs": [],
      "stateMutability": "nonpayable",
      "type": "function"
    },
    {
      "inputs": [],
      "name": "marketEggs",
      "outputs": [
        {
          "internalType": "uint256",
          "name": "",
          "type": "uint256"
        }
      ],
      "stateMutability": "view",
      "type": "function"
    },
    {
      "inputs": [],
      "name": "owner",
      "outputs": [
        {
          "internalType": "address",
          "name": "",
          "type": "address"
        }
      ],
      "stateMutability": "view",
      "type": "function"
    },
    {
      "inputs": [
        {
          "internalType": "address",
          "name": "",
          "type": "address"
        }
      ],
      "name": "referrals",
      "outputs": [
        {
          "internalType": "address",
          "name": "",
          "type": "address"
        }
      ],
      "stateMutability": "view",
      "type": "function"
    },
    {
      "inputs": [],
      "name": "renounceOwnership",
      "outputs": [],
      "stateMutability": "nonpayable",
      "type": "function"
    },
    {
      "inputs": [],
      "name": "seedMarket",
      "outputs": [],
      "stateMutability": "nonpayable",
      "type": "function"
    },
    {
      "inputs": [],
      "name": "sellEggs",
      "outputs": [],
      "stateMutability": "nonpayable",
      "type": "function"
    },
    {
      "inputs": [
        {
          "internalType": "address",
          "name": "_lotteryAddr",
          "type": "address"
        }
      ],
      "name": "setLotteryAddr",
      "outputs": [],
      "stateMutability": "nonpayable",
      "type": "function"
    },
    {
      "inputs": [
        {
          "internalType": "address",
          "name": "_tokenAddr",
          "type": "address"
        }
      ],
      "name": "setTokenAddress",
      "outputs": [],
      "stateMutability": "nonpayable",
      "type": "function"
    },
    {
      "inputs": [],
      "name": "token",
      "outputs": [
        {
          "internalType": "address",
          "name": "",
          "type": "address"
        }
      ],
      "stateMutability": "view",
      "type": "function"
    },
    {
      "inputs": [
        {
          "internalType": "address",
          "name": "newOwner",
          "type": "address"
        }
      ],
      "name": "transferOwnership",
      "outputs": [],
      "stateMutability": "nonpayable",
      "type": "function"
    }
  ],
  "bytecode": "0x6080604052600180546001600160a01b0319169055622bf200600355612710600455611388600590815560068190556007556008805460ff1916905534801561004757600080fd5b50600080546001600160a01b031916339081178255604051909182917f8be0079c531659141344cd1fd0a4f28419497f9722a3daafe3b4186f6b6457e0908290a350600280546001600160a01b03191633179055611586806100aa6000396000f3fe608060405234801561001057600080fd5b50600436106101b95760003560e01c8063715018a6116100f95780639b3a388011610097578063a507abee11610071578063a507abee146103b0578063d7c8843b146103c3578063f2fde38b146103d6578063fc0c546a146103e957600080fd5b80639b3a38801461036c5780639ca423b31461037f578063a47cc4e0146103a857600080fd5b80637e56fde5116100d35780637e56fde5146103225780638b82d348146103355780638da5cb5b146103485780638e3163271461035957600080fd5b8063715018a6146102da57806372670361146102e257806379532aa91461030257600080fd5b80633955f0fe116101665780633ec862a8116101405780633ec862a81461026b578063450edf951461027e578063467ece79146102915780634b634b06146102b157600080fd5b80633955f0fe146102485780633ad10ef6146102505780633c5f07cb1461026357600080fd5b80632e9392bb116101975780632e9392bb146102015780632ef6a7431461020a5780632f5b15641461021d57600080fd5b806312065fe0146101be57806326a4e8d2146101d957806326fd8422146101ee575b600080fd5b6101c66103fc565b6040519081526020015b60405180910390f35b6101ec6101e73660046113bf565b610496565b005b6101c66101fc3660046113da565b61052f565b6101c6600d5481565b6101c66102183660046113bf565b610545565b600e54610230906001600160a01b031681565b6040516001600160a01b0390911681526020016101d0565b6101ec610576565b600254610230906001600160a01b031681565b6101ec6107c8565b6101ec6102793660046113bf565b610865565b6101ec61028c3660046113fc565b610a58565b6101c661029f3660046113bf565b600b6020526000908152604090205481565b6101c66102bf3660046113bf565b6001600160a01b031660009081526009602052604090205490565b6101ec610d45565b6101c66102f03660046113bf565b600a6020526000908152604090205481565b6101c66103103660046113bf565b60096020526000908152604090205481565b6101c6610330366004611426565b610e01565b6101ec6103433660046113bf565b610e9c565b6000546001600160a01b0316610230565b6101c6610367366004611426565b610f30565b6101ec61037a366004611426565b610fd5565b61023061038d3660046113bf565b600c602052600090815260409020546001600160a01b031681565b6101ec611091565b6101c66103be3660046113bf565b611127565b6101c66103d13660046113bf565b611156565b6101ec6103e43660046113bf565b6111ba565b600154610230906001600160a01b031681565b6001546040517f70a082310000000000000000000000000000000000000000000000000000000081523060048201526000916001600160a01b0316906370a082319060240160206040518083038186803b15801561045957600080fd5b505afa15801561046d573d6000803e3d6000fd5b505050506040513d601f19601f82011682018060405250810190610491919061143f565b905090565b6000546001600160a01b031633146104f55760405162461bcd60e51b815260206004820181905260248201527f4f776e61626c653a2063616c6c6572206973206e6f7420746865206f776e657260448201526064015b60405180910390fd5b600180547fffffffffffffffffffffffff0000000000000000000000000000000000000000166001600160a01b0392909216919091179055565b600061053e8383600d5461121d565b9392505050565b6001600160a01b0381166000908152600a60205260408120546105709061056b84611156565b61125d565b92915050565b60085460ff166105c85760405162461bcd60e51b815260206004820152601b60248201527f436f6e7472616374206973206e6f7420696e697469616c697a6564000000000060448201526064016104ec565b60006105d333610545565b905060006105e082610f30565b905060006105ed82611269565b336000908152600a60209081526040808320839055600b9091529020429055600d5490915061061c908461125d565b600d556001546002546040517fa9059cbb0000000000000000000000000000000000000000000000000000000081526001600160a01b0391821660048201526024810184905291169063a9059cbb90604401602060405180830381600087803b15801561068857600080fd5b505af115801561069c573d6000803e3d6000fd5b505050506040513d601f19601f820116820180604052508101906106c09190611458565b506001546001600160a01b031663a9059cbb336106dd858561127a565b6040517fffffffff0000000000000000000000000000000000000000000000000000000060e085901b1681526001600160a01b0390921660048301526024820152604401602060405180830381600087803b15801561073b57600080fd5b505af115801561074f573d6000803e3d6000fd5b505050506040513d601f19601f820116820180604052508101906107739190611458565b507f0cab51182ce6044a3d92186c0d3b642e10af11c17235f35a5c8011ac742c7129336107a083856114a9565b604080516001600160a01b0390931683526020830191909152015b60405180910390a1505050565b6000546001600160a01b031633146108225760405162461bcd60e51b815260206004820181905260248201527f4f776e61626c653a2063616c6c6572206973206e6f7420746865206f776e657260448201526064016104ec565b600d541561082f57600080fd5b600880547fffffffffffffffffffffffffffffffffffffffffffffffffffffffffffffff001660011790556419254d3800600d55565b60085460ff166108b75760405162461bcd60e51b815260206004820152601b60248201527f436f6e7472616374206973206e6f7420696e697469616c697a6564000000000060448201526064016104ec565b6001600160a01b0381163314156108cc575060005b336000908152600c60205260409020546001600160a01b03161580156109095750336000818152600c60205260409020546001600160a01b031614155b1561094f57336000908152600c6020526040902080547fffffffffffffffffffffffff0000000000000000000000000000000000000000166001600160a01b0383161790555b600061095a33610545565b9050600061096a82600354611286565b33600090815260096020526040902054909150610987908261125d565b33600090815260096020908152604080832093909355600a808252838320839055600b8252838320429055600c8252838320546001600160a01b03168352905220546007546109e7919061056b906109e0908690611292565b6064611286565b336000908152600c60209081526040808320546001600160a01b03168352600a909152902055600d54610a1f9061056b846005611286565b600d5560408051338152602081018390527f65e14e35fa6e0c6714b0e9d5bb2d6a2d1a2e04ffaf77d3804d9340481e92df7391016107bb565b60085460ff16610aaa5760405162461bcd60e51b815260206004820152601b60248201527f436f6e7472616374206973206e6f7420696e697469616c697a6564000000000060448201526064016104ec565b6001546040517f23b872dd000000000000000000000000000000000000000000000000000000008152336004820152306024820152604481018390526001600160a01b03909116906323b872dd90606401602060405180830381600087803b158015610b1557600080fd5b505af1158015610b29573d6000803e3d6000fd5b505050506040513d601f19601f82011682018060405250810190610b4d9190611458565b506001546040517f70a082310000000000000000000000000000000000000000000000000000000081523060048201526000916001600160a01b0316906370a082319060240160206040518083038186803b158015610bab57600080fd5b505afa158015610bbf573d6000803e3d6000fd5b505050506040513d601f19601f82011682018060405250810190610be3919061143f565b90506000610bf5836101fc848661127a565b9050610c0981610c0483611269565b61127a565b90506000610c1684611269565b6001546002546040517fa9059cbb0000000000000000000000000000000000000000000000000000000081526001600160a01b03918216600482015260248101849052929350169063a9059cbb90604401602060405180830381600087803b158015610c8157600080fd5b505af1158015610c95573d6000803e3d6000fd5b505050506040513d601f19601f82011682018060405250810190610cb99190611458565b50336000908152600a6020526040902054610cd4908361125d565b336000818152600a60205260409020919091557f3e41902bbad498b5d10fb6357ac429220340d810ebad33a10ecc30010d14b1d590610d1383876114a9565b604080516001600160a01b03909316835260208301919091520160405180910390a1610d3e85610865565b5050505050565b6000546001600160a01b03163314610d9f5760405162461bcd60e51b815260206004820181905260248201527f4f776e61626c653a2063616c6c6572206973206e6f7420746865206f776e657260448201526064016104ec565b600080546040516001600160a01b03909116907f8be0079c531659141344cd1fd0a4f28419497f9722a3daafe3b4186f6b6457e0908390a3600080547fffffffffffffffffffffffff0000000000000000000000000000000000000000169055565b6001546040517f70a082310000000000000000000000000000000000000000000000000000000081523060048201526000916105709184916001600160a01b0316906370a082319060240160206040518083038186803b158015610e6457600080fd5b505afa158015610e78573d6000803e3d6000fd5b505050506040513d601f19601f820116820180604052508101906101fc919061143f565b6000546001600160a01b03163314610ef65760405162461bcd60e51b815260206004820181905260248201527f4f776e61626c653a2063616c6c6572206973206e6f7420746865206f776e657260448201526064016104ec565b600e80547fffffffffffffffffffffffff0000000000000000000000000000000000000000166001600160a01b0392909216919091179055565b600d546001546040517f70a082310000000000000000000000000000000000000000000000000000000081523060048201526000926105709285926001600160a01b03909116906370a082319060240160206040518083038186803b158015610f9857600080fd5b505afa158015610fac573d6000803e3d6000fd5b505050506040513d601f19601f82011682018060405250810190610fd0919061143f565b61121d565b600e546001600160a01b031633146110555760405162461bcd60e51b815260206004820152603060248201527f4d696e65722063616e206f6e6c792062652066756e6465642077697468696e2060448201527f6c6f747465727920636f6e74726163740000000000000000000000000000000060648201526084016104ec565b60408051338152602081018390527f1a968ece632cfa05183a542404ddfed306a0a5f372b8579e3edaa79c2c847b13910160405180910390a150565b6000546001600160a01b031633146110eb5760405162461bcd60e51b815260206004820181905260248201527f4f776e61626c653a2063616c6c6572206973206e6f7420746865206f776e657260448201526064016104ec565b6002546040516001600160a01b03909116904780156108fc02916000818181858888f19350505050158015611124573d6000803e3d6000fd5b50565b60008061113383610545565b9050806111435750600092915050565b600061114e82610f30565b949350505050565b60008061119360035461118e42600b6000886001600160a01b03166001600160a01b031681526020019081526020016000205461127a565b61129e565b6001600160a01b03841660009081526009602052604090205490915061053e908290611292565b6000546001600160a01b031633146112145760405162461bcd60e51b815260206004820181905260248201527f4f776e61626c653a2063616c6c6572206973206e6f7420746865206f776e657260448201526064016104ec565b611124816112b4565b600061114e61122e60045484611292565b61125860055461056b6112526112466004548a611292565b61056b6005548c611292565b89611286565b611286565b600061053e82846114c0565b60006105706109e083600654611292565b600061053e82846114a9565b600061053e82846114d8565b600061053e8284611513565b60008183106112ad578161053e565b5090919050565b6001600160a01b0381166113305760405162461bcd60e51b815260206004820152602660248201527f4f776e61626c653a206e6577206f776e657220697320746865207a65726f206160448201527f646472657373000000000000000000000000000000000000000000000000000060648201526084016104ec565b600080546040516001600160a01b03808516939216917f8be0079c531659141344cd1fd0a4f28419497f9722a3daafe3b4186f6b6457e091a3600080547fffffffffffffffffffffffff0000000000000000000000000000000000000000166001600160a01b0392909216919091179055565b80356001600160a01b03811681146113ba57600080fd5b919050565b6000602082840312156113d157600080fd5b61053e826113a3565b600080604083850312156113ed57600080fd5b50508035926020909101359150565b6000806040838503121561140f57600080fd5b611418836113a3565b946020939093013593505050565b60006020828403121561143857600080fd5b5035919050565b60006020828403121561145157600080fd5b5051919050565b60006020828403121561146a57600080fd5b8151801515811461053e57600080fd5b7f4e487b7100000000000000000000000000000000000000000000000000000000600052601160045260246000fd5b6000828210156114bb576114bb61147a565b500390565b600082198211156114d3576114d361147a565b500190565b60008261150e577f4e487b7100000000000000000000000000000000000000000000000000000000600052601260045260246000fd5b500490565b6000817fffffffffffffffffffffffffffffffffffffffffffffffffffffffffffffffff048311821515161561154b5761154b61147a565b50029056fea26469706673582212209aa343c76612af1f768adc756c487f6a2ab536e875a1df29ee2a320ece706c3164736f6c63430008090033",
  "linkReferences": {},
  "deployedLinkReferences": {}
}