{
  "_format": "hh-sol-artifact-1",
  "contractName": "MinerV1Native",
  "sourceName": "contracts/Miners/MinerV1Native.sol",
  "abi": [
    {
      "inputs": [],
      "stateMutability": "nonpayable",
      "type": "constructor"
    },
    {
      "anonymous": false,
      "inputs": [
        {
          "indexed": false,
          "internalType": "address",
          "name": "_from",
          "type": "address"
        },
        {
          "indexed": false,
          "internalType": "uint256",
          "name": "_amount",
          "type": "uint256"
        }
      ],
      "name": "BuyEggs",
      "type": "event"
    },
    {
      "anonymous": false,
      "inputs": [
        {
          "indexed": false,
          "internalType": "address",
          "name": "_from",
          "type": "address"
        },
        {
          "indexed": false,
          "internalType": "uint256",
          "name": "_newMiners",
          "type": "uint256"
        }
      ],
      "name": "HatchEggs",
      "type": "event"
    },
    {
      "anonymous": false,
      "inputs": [
        {
          "indexed": true,
          "internalType": "address",
          "name": "previousOwner",
          "type": "address"
        },
        {
          "indexed": true,
          "internalType": "address",
          "name": "newOwner",
          "type": "address"
        }
      ],
      "name": "OwnershipTransferred",
      "type": "event"
    },
    {
      "anonymous": false,
      "inputs": [
        {
          "indexed": false,
          "internalType": "address",
          "name": "_from",
          "type": "address"
        },
        {
          "indexed": false,
          "internalType": "uint256",
          "name": "_lotteryValue",
          "type": "uint256"
        }
      ],
      "name": "ReceivedFromLottery",
      "type": "event"
    },
    {
      "anonymous": false,
      "inputs": [
        {
          "indexed": false,
          "internalType": "address",
          "name": "_from",
          "type": "address"
        },
        {
          "indexed": false,
          "internalType": "uint256",
          "name": "_eggsValues",
          "type": "uint256"
        }
      ],
      "name": "SellEggs",
      "type": "event"
    },
    {
      "inputs": [],
      "name": "CashBack",
      "outputs": [],
      "stateMutability": "nonpayable",
      "type": "function"
    },
    {
      "inputs": [
        {
          "internalType": "address",
          "name": "adr",
          "type": "address"
        }
      ],
      "name": "beanRewards",
      "outputs": [
        {
          "internalType": "uint256",
          "name": "",
          "type": "uint256"
        }
      ],
      "stateMutability": "view",
      "type": "function"
    },
    {
      "inputs": [
        {
          "internalType": "address",
          "name": "ref",
          "type": "address"
        }
      ],
      "name": "buyEggs",
      "outputs": [],
      "stateMutability": "payable",
      "type": "function"
    },
    {
      "inputs": [
        {
          "internalType": "uint256",
          "name": "eth",
          "type": "uint256"
        },
        {
          "internalType": "uint256",
          "name": "contractBalance",
          "type": "uint256"
        }
      ],
      "name": "calculateEggBuy",
      "outputs": [
        {
          "internalType": "uint256",
          "name": "",
          "type": "uint256"
        }
      ],
      "stateMutability": "view",
      "type": "function"
    },
    {
      "inputs": [
        {
          "internalType": "uint256",
          "name": "eth",
          "type": "uint256"
        }
      ],
      "name": "calculateEggBuySimple",
      "outputs": [
        {
          "internalType": "uint256",
          "name": "",
          "type": "uint256"
        }
      ],
      "stateMutability": "view",
      "type": "function"
    },
    {
      "inputs": [
        {
          "internalType": "uint256",
          "name": "eggs",
          "type": "uint256"
        }
      ],
      "name": "calculateEggSell",
      "outputs": [
        {
          "internalType": "uint256",
          "name": "",
          "type": "uint256"
        }
      ],
      "stateMutability": "view",
      "type": "function"
    },
    {
      "inputs": [
        {
          "internalType": "address",
          "name": "",
          "type": "address"
        }
      ],
      "name": "claimedEggs",
      "outputs": [
        {
          "internalType": "uint256",
          "name": "",
          "type": "uint256"
        }
      ],
      "stateMutability": "view",
      "type": "function"
    },
    {
      "inputs": [],
      "name": "devAddress",
      "outputs": [
        {
          "internalType": "address payable",
          "name": "",
          "type": "address"
        }
      ],
      "stateMutability": "view",
      "type": "function"
    },
    {
      "inputs": [],
      "name": "getBalance",
      "outputs": [
        {
          "internalType": "uint256",
          "name": "",
          "type": "uint256"
        }
      ],
      "stateMutability": "view",
      "type": "function"
    },
    {
      "inputs": [
        {
          "internalType": "address",
          "name": "adr",
          "type": "address"
        }
      ],
      "name": "getEggsSinceLastHatch",
      "outputs": [
        {
          "internalType": "uint256",
          "name": "",
          "type": "uint256"
        }
      ],
      "stateMutability": "view",
      "type": "function"
    },
    {
      "inputs": [
        {
          "internalType": "address",
          "name": "adr",
          "type": "address"
        }
      ],
      "name": "getMyEggs",
      "outputs": [
        {
          "internalType": "uint256",
          "name": "",
          "type": "uint256"
        }
      ],
      "stateMutability": "view",
      "type": "function"
    },
    {
      "inputs": [
        {
          "internalType": "address",
          "name": "adr",
          "type": "address"
        }
      ],
      "name": "getMyMiners",
      "outputs": [
        {
          "internalType": "uint256",
          "name": "",
          "type": "uint256"
        }
      ],
      "stateMutability": "view",
      "type": "function"
    },
    {
      "inputs": [
        {
          "internalType": "address",
          "name": "ref",
          "type": "address"
        }
      ],
      "name": "hatchEggs",
      "outputs": [],
      "stateMutability": "nonpayable",
      "type": "function"
    },
    {
      "inputs": [
        {
          "internalType": "address",
          "name": "",
          "type": "address"
        }
      ],
      "name": "hatcheryMiners",
      "outputs": [
        {
          "internalType": "uint256",
          "name": "",
          "type": "uint256"
        }
      ],
      "stateMutability": "view",
      "type": "function"
    },
    {
      "inputs": [
        {
          "internalType": "address",
          "name": "",
          "type": "address"
        }
      ],
      "name": "lastHatch",
      "outputs": [
        {
          "internalType": "uint256",
          "name": "",
          "type": "uint256"
        }
      ],
      "stateMutability": "view",
      "type": "function"
    },
    {
      "inputs": [],
      "name": "lotteryAddr",
      "outputs": [
        {
          "internalType": "address",
          "name": "",
          "type": "address"
        }
      ],
      "stateMutability": "view",
      "type": "function"
    },
    {
      "inputs": [
        {
          "internalType": "uint256",
          "name": "_amount",
          "type": "uint256"
        }
      ],
      "name": "lotteryPays",
      "outputs": [],
      "stateMutability": "payable",
      "type": "function"
    },
    {
      "inputs": [],
      "name": "marketEggs",
      "outputs": [
        {
          "internalType": "uint256",
          "name": "",
          "type": "uint256"
        }
      ],
      "stateMutability": "view",
      "type": "function"
    },
    {
      "inputs": [],
      "name": "owner",
      "outputs": [
        {
          "internalType": "address",
          "name": "",
          "type": "address"
        }
      ],
      "stateMutability": "view",
      "type": "function"
    },
    {
      "inputs": [
        {
          "internalType": "address",
          "name": "",
          "type": "address"
        }
      ],
      "name": "referrals",
      "outputs": [
        {
          "internalType": "address",
          "name": "",
          "type": "address"
        }
      ],
      "stateMutability": "view",
      "type": "function"
    },
    {
      "inputs": [],
      "name": "renounceOwnership",
      "outputs": [],
      "stateMutability": "nonpayable",
      "type": "function"
    },
    {
      "inputs": [],
      "name": "seedMarket",
      "outputs": [],
      "stateMutability": "payable",
      "type": "function"
    },
    {
      "inputs": [],
      "name": "sellEggs",
      "outputs": [],
      "stateMutability": "nonpayable",
      "type": "function"
    },
    {
      "inputs": [
        {
          "internalType": "address",
          "name": "_lotteryAddr",
          "type": "address"
        }
      ],
      "name": "setLotteryAddr",
      "outputs": [],
      "stateMutability": "nonpayable",
      "type": "function"
    },
    {
      "inputs": [
        {
          "internalType": "address",
          "name": "newOwner",
          "type": "address"
        }
      ],
      "name": "transferOwnership",
      "outputs": [],
      "stateMutability": "nonpayable",
      "type": "function"
    }
  ],
  "bytecode": "0x6080604052622bf20060025561271060035561138860045560058080556006556007805460ff1916905534801561003557600080fd5b50600080546001600160a01b031916339081178255604051909182917f8be0079c531659141344cd1fd0a4f28419497f9722a3daafe3b4186f6b6457e0908290a350600180546001600160a01b03191633179055611273806100986000396000f3fe6080604052600436106101965760003560e01c806372670361116100e15780639b3a38801161008a578063a507abee11610064578063a507abee146104a6578063d7c8843b146104c6578063db663865146104e6578063f2fde38b146104f957600080fd5b80639b3a38801461043b5780639ca423b31461044e578063a47cc4e01461049157600080fd5b80638b82d348116100bb5780638b82d348146103d05780638da5cb5b146103f05780638e3163271461041b57600080fd5b8063726703611461035657806379532aa9146103835780637e56fde5146103b057600080fd5b80633ad10ef611610143578063467ece791161011d578063467ece79146102d15780634b634b06146102fe578063715018a61461034157600080fd5b80633ad10ef61461027c5780633c5f07cb146102a95780633ec862a8146102b157600080fd5b80632ef6a743116101745780632ef6a743146101f35780632f5b1564146102135780633955f0fe1461026557600080fd5b806312065fe01461019b57806326fd8422146101bd5780632e9392bb146101dd575b600080fd5b3480156101a757600080fd5b50475b6040519081526020015b60405180910390f35b3480156101c957600080fd5b506101aa6101d83660046110f6565b610519565b3480156101e957600080fd5b506101aa600c5481565b3480156101ff57600080fd5b506101aa61020e366004611118565b61052f565b34801561021f57600080fd5b50600d546102409073ffffffffffffffffffffffffffffffffffffffff1681565b60405173ffffffffffffffffffffffffffffffffffffffff90911681526020016101b4565b34801561027157600080fd5b5061027a61056d565b005b34801561028857600080fd5b506001546102409073ffffffffffffffffffffffffffffffffffffffff1681565b61027a6106d9565b3480156102bd57600080fd5b5061027a6102cc366004611118565b610783565b3480156102dd57600080fd5b506101aa6102ec366004611118565b600a6020526000908152604090205481565b34801561030a57600080fd5b506101aa610319366004611118565b73ffffffffffffffffffffffffffffffffffffffff1660009081526008602052604090205490565b34801561034d57600080fd5b5061027a6109c4565b34801561036257600080fd5b506101aa610371366004611118565b60096020526000908152604090205481565b34801561038f57600080fd5b506101aa61039e366004611118565b60086020526000908152604090205481565b3480156103bc57600080fd5b506101aa6103cb36600461114e565b610a9a565b3480156103dc57600080fd5b5061027a6103eb366004611118565b610aa6565b3480156103fc57600080fd5b5060005473ffffffffffffffffffffffffffffffffffffffff16610240565b34801561042757600080fd5b506101aa61043636600461114e565b610b54565b61027a61044936600461114e565b610b63565b34801561045a57600080fd5b50610240610469366004611118565b600b6020526000908152604090205473ffffffffffffffffffffffffffffffffffffffff1681565b34801561049d57600080fd5b5061027a610c2c565b3480156104b257600080fd5b506101aa6104c1366004611118565b610cdc565b3480156104d257600080fd5b506101aa6104e1366004611118565b610d0b565b61027a6104f4366004611118565b610d96565b34801561050557600080fd5b5061027a610514366004611118565b610ed9565b60006105288383600c54610f49565b9392505050565b73ffffffffffffffffffffffffffffffffffffffff81166000908152600960205260408120546105679061056284610d0b565b610f89565b92915050565b60075460ff166105c45760405162461bcd60e51b815260206004820152601b60248201527f436f6e7472616374206973206e6f7420696e697469616c697a6564000000000060448201526064015b60405180910390fd5b60006105cf3361052f565b905060006105dc82610b54565b905060006105e982610f95565b336000908152600960209081526040808320839055600a9091529020429055600c549091506106189084610f89565b600c5560015460405173ffffffffffffffffffffffffffffffffffffffff9091169082156108fc029083906000818181858888f19350505050158015610662573d6000803e3d6000fd5b50336108fc6106718484610fa6565b6040518115909202916000818181858888f19350505050158015610699573d6000803e3d6000fd5b5060408051338152602081018490527f0cab51182ce6044a3d92186c0d3b642e10af11c17235f35a5c8011ac742c712991015b60405180910390a1505050565b60005473ffffffffffffffffffffffffffffffffffffffff1633146107405760405162461bcd60e51b815260206004820181905260248201527f4f776e61626c653a2063616c6c6572206973206e6f7420746865206f776e657260448201526064016105bb565b600c541561074d57600080fd5b600780547fffffffffffffffffffffffffffffffffffffffffffffffffffffffffffffff001660011790556419254d3800600c55565b60075460ff166107d55760405162461bcd60e51b815260206004820152601b60248201527f436f6e7472616374206973206e6f7420696e697469616c697a6564000000000060448201526064016105bb565b73ffffffffffffffffffffffffffffffffffffffff81163314156107f7575060005b336000908152600b602052604090205473ffffffffffffffffffffffffffffffffffffffff1615801561084e5750336000818152600b602052604090205473ffffffffffffffffffffffffffffffffffffffff1614155b156108a157336000908152600b6020526040902080547fffffffffffffffffffffffff00000000000000000000000000000000000000001673ffffffffffffffffffffffffffffffffffffffff83161790555b60006108ac3361052f565b905060006108bc82600254610fb2565b336000908152600860205260409020549091506108d99082610f89565b336000908152600860209081526040808320939093556009808252838320839055600a8252838320429055600b82528383205473ffffffffffffffffffffffffffffffffffffffff1683529052205460065461094691906105629061093f908690610fbe565b6064610fb2565b336000908152600b602090815260408083205473ffffffffffffffffffffffffffffffffffffffff1683526009909152902055600c5461098b90610562846005610fb2565b600c5560408051338152602081018390527f65e14e35fa6e0c6714b0e9d5bb2d6a2d1a2e04ffaf77d3804d9340481e92df7391016106cc565b60005473ffffffffffffffffffffffffffffffffffffffff163314610a2b5760405162461bcd60e51b815260206004820181905260248201527f4f776e61626c653a2063616c6c6572206973206e6f7420746865206f776e657260448201526064016105bb565b6000805460405173ffffffffffffffffffffffffffffffffffffffff909116907f8be0079c531659141344cd1fd0a4f28419497f9722a3daafe3b4186f6b6457e0908390a3600080547fffffffffffffffffffffffff0000000000000000000000000000000000000000169055565b60006105678247610519565b60005473ffffffffffffffffffffffffffffffffffffffff163314610b0d5760405162461bcd60e51b815260206004820181905260248201527f4f776e61626c653a2063616c6c6572206973206e6f7420746865206f776e657260448201526064016105bb565b600d80547fffffffffffffffffffffffff00000000000000000000000000000000000000001673ffffffffffffffffffffffffffffffffffffffff92909216919091179055565b600061056782600c5447610f49565b600d5473ffffffffffffffffffffffffffffffffffffffff163314610bf05760405162461bcd60e51b815260206004820152603060248201527f4d696e65722063616e206f6e6c792062652066756e6465642077697468696e2060448201527f6c6f747465727920636f6e74726163740000000000000000000000000000000060648201526084016105bb565b60408051338152602081018390527f1a968ece632cfa05183a542404ddfed306a0a5f372b8579e3edaa79c2c847b13910160405180910390a150565b60005473ffffffffffffffffffffffffffffffffffffffff163314610c935760405162461bcd60e51b815260206004820181905260248201527f4f776e61626c653a2063616c6c6572206973206e6f7420746865206f776e657260448201526064016105bb565b60015460405173ffffffffffffffffffffffffffffffffffffffff909116904780156108fc02916000818181858888f19350505050158015610cd9573d6000803e3d6000fd5b50565b600080610ce88361052f565b905080610cf85750600092915050565b6000610d0382610b54565b949350505050565b600080610d62600254610d5d42600a60008873ffffffffffffffffffffffffffffffffffffffff1673ffffffffffffffffffffffffffffffffffffffff16815260200190815260200160002054610fa6565b610fca565b73ffffffffffffffffffffffffffffffffffffffff8416600090815260086020526040902054909150610528908290610fbe565b60075460ff16610de85760405162461bcd60e51b815260206004820152601b60248201527f436f6e7472616374206973206e6f7420696e697469616c697a6564000000000060448201526064016105bb565b6000610df8346101d84734610fa6565b9050610e0c81610e0783610f95565b610fa6565b90506000610e1934610f95565b60015460405191925073ffffffffffffffffffffffffffffffffffffffff169082156108fc029083906000818181858888f19350505050158015610e61573d6000803e3d6000fd5b5033600090815260096020526040902054610e7c9083610f89565b3360008181526009602090815260409182902093909355805191825234928201929092527f3e41902bbad498b5d10fb6357ac429220340d810ebad33a10ecc30010d14b1d5910160405180910390a1610ed483610783565b505050565b60005473ffffffffffffffffffffffffffffffffffffffff163314610f405760405162461bcd60e51b815260206004820181905260248201527f4f776e61626c653a2063616c6c6572206973206e6f7420746865206f776e657260448201526064016105bb565b610cd981610fe0565b6000610d03610f5a60035484610fbe565b610f84600454610562610f7e610f726003548a610fbe565b6105626004548c610fbe565b89610fb2565b610fb2565b60006105288284611196565b600061056761093f83600554610fbe565b600061052882846111ae565b600061052882846111c5565b60006105288284611200565b6000818310610fd95781610528565b5090919050565b73ffffffffffffffffffffffffffffffffffffffff81166110695760405162461bcd60e51b815260206004820152602660248201527f4f776e61626c653a206e6577206f776e657220697320746865207a65726f206160448201527f646472657373000000000000000000000000000000000000000000000000000060648201526084016105bb565b6000805460405173ffffffffffffffffffffffffffffffffffffffff808516939216917f8be0079c531659141344cd1fd0a4f28419497f9722a3daafe3b4186f6b6457e091a3600080547fffffffffffffffffffffffff00000000000000000000000000000000000000001673ffffffffffffffffffffffffffffffffffffffff92909216919091179055565b6000806040838503121561110957600080fd5b50508035926020909101359150565b60006020828403121561112a57600080fd5b813573ffffffffffffffffffffffffffffffffffffffff8116811461052857600080fd5b60006020828403121561116057600080fd5b5035919050565b7f4e487b7100000000000000000000000000000000000000000000000000000000600052601160045260246000fd5b600082198211156111a9576111a9611167565b500190565b6000828210156111c0576111c0611167565b500390565b6000826111fb577f4e487b7100000000000000000000000000000000000000000000000000000000600052601260045260246000fd5b500490565b6000817fffffffffffffffffffffffffffffffffffffffffffffffffffffffffffffffff048311821515161561123857611238611167565b50029056fea2646970667358221220ef9f12d197cad1a6254a349d48aa9db8e1b959690ba6bbc7c325b8a0ab7a418064736f6c63430008090033",
  "linkReferences": {},
  "deployedLinkReferences": {}
}