{
  "_format": "hh-sol-artifact-1",
  "contractName": "MinerV1ERC20",
  "sourceName": "contracts/Miners/MinerV1ERC20.sol",
  "abi": [
    {
      "inputs": [],
      "stateMutability": "nonpayable",
      "type": "constructor"
    },
    {
      "anonymous": false,
      "inputs": [
        {
          "indexed": false,
          "internalType": "address",
          "name": "_from",
          "type": "address"
        },
        {
          "indexed": false,
          "internalType": "uint256",
          "name": "_amount",
          "type": "uint256"
        }
      ],
      "name": "BuyEggs",
      "type": "event"
    },
    {
      "anonymous": false,
      "inputs": [
        {
          "indexed": false,
          "internalType": "address",
          "name": "_from",
          "type": "address"
        },
        {
          "indexed": false,
          "internalType": "uint256",
          "name": "_newMiners",
          "type": "uint256"
        }
      ],
      "name": "HatchEggs",
      "type": "event"
    },
    {
      "anonymous": false,
      "inputs": [
        {
          "indexed": true,
          "internalType": "address",
          "name": "previousOwner",
          "type": "address"
        },
        {
          "indexed": true,
          "internalType": "address",
          "name": "newOwner",
          "type": "address"
        }
      ],
      "name": "OwnershipTransferred",
      "type": "event"
    },
    {
      "anonymous": false,
      "inputs": [
        {
          "indexed": false,
          "internalType": "uint256",
          "name": "_lotteryValue",
          "type": "uint256"
        }
      ],
      "name": "ReceivedFromLottery",
      "type": "event"
    },
    {
      "anonymous": false,
      "inputs": [
        {
          "indexed": false,
          "internalType": "address",
          "name": "_from",
          "type": "address"
        },
        {
          "indexed": false,
          "internalType": "uint256",
          "name": "_eggsValues",
          "type": "uint256"
        }
      ],
      "name": "SellEggs",
      "type": "event"
    },
    {
      "inputs": [],
      "name": "CashBack",
      "outputs": [],
      "stateMutability": "nonpayable",
      "type": "function"
    },
    {
      "inputs": [
        {
          "internalType": "address",
          "name": "adr",
          "type": "address"
        }
      ],
      "name": "beanRewards",
      "outputs": [
        {
          "internalType": "uint256",
          "name": "",
          "type": "uint256"
        }
      ],
      "stateMutability": "view",
      "type": "function"
    },
    {
      "inputs": [
        {
          "internalType": "address",
          "name": "ref",
          "type": "address"
        },
        {
          "internalType": "uint256",
          "name": "amount",
          "type": "uint256"
        }
      ],
      "name": "buyEggs",
      "outputs": [],
      "stateMutability": "nonpayable",
      "type": "function"
    },
    {
      "inputs": [
        {
          "internalType": "uint256",
          "name": "eth",
          "type": "uint256"
        },
        {
          "internalType": "uint256",
          "name": "contractBalance",
          "type": "uint256"
        }
      ],
      "name": "calculateEggBuy",
      "outputs": [
        {
          "internalType": "uint256",
          "name": "",
          "type": "uint256"
        }
      ],
      "stateMutability": "view",
      "type": "function"
    },
    {
      "inputs": [
        {
          "internalType": "uint256",
          "name": "eth",
          "type": "uint256"
        }
      ],
      "name": "calculateEggBuySimple",
      "outputs": [
        {
          "internalType": "uint256",
          "name": "",
          "type": "uint256"
        }
      ],
      "stateMutability": "view",
      "type": "function"
    },
    {
      "inputs": [
        {
          "internalType": "uint256",
          "name": "eggs",
          "type": "uint256"
        }
      ],
      "name": "calculateEggSell",
      "outputs": [
        {
          "internalType": "uint256",
          "name": "",
          "type": "uint256"
        }
      ],
      "stateMutability": "view",
      "type": "function"
    },
    {
      "inputs": [
        {
          "internalType": "address",
          "name": "",
          "type": "address"
        }
      ],
      "name": "claimedEggs",
      "outputs": [
        {
          "internalType": "uint256",
          "name": "",
          "type": "uint256"
        }
      ],
      "stateMutability": "view",
      "type": "function"
    },
    {
      "inputs": [],
      "name": "devAddress",
      "outputs": [
        {
          "internalType": "address",
          "name": "",
          "type": "address"
        }
      ],
      "stateMutability": "view",
      "type": "function"
    },
    {
      "inputs": [],
      "name": "getBalance",
      "outputs": [
        {
          "internalType": "uint256",
          "name": "",
          "type": "uint256"
        }
      ],
      "stateMutability": "view",
      "type": "function"
    },
    {
      "inputs": [
        {
          "internalType": "address",
          "name": "adr",
          "type": "address"
        }
      ],
      "name": "getEggsSinceLastHatch",
      "outputs": [
        {
          "internalType": "uint256",
          "name": "",
          "type": "uint256"
        }
      ],
      "stateMutability": "view",
      "type": "function"
    },
    {
      "inputs": [
        {
          "internalType": "address",
          "name": "adr",
          "type": "address"
        }
      ],
      "name": "getMyEggs",
      "outputs": [
        {
          "internalType": "uint256",
          "name": "",
          "type": "uint256"
        }
      ],
      "stateMutability": "view",
      "type": "function"
    },
    {
      "inputs": [
        {
          "internalType": "address",
          "name": "adr",
          "type": "address"
        }
      ],
      "name": "getMyMiners",
      "outputs": [
        {
          "internalType": "uint256",
          "name": "",
          "type": "uint256"
        }
      ],
      "stateMutability": "view",
      "type": "function"
    },
    {
      "inputs": [
        {
          "internalType": "address",
          "name": "ref",
          "type": "address"
        }
      ],
      "name": "hatchEggs",
      "outputs": [],
      "stateMutability": "nonpayable",
      "type": "function"
    },
    {
      "inputs": [
        {
          "internalType": "address",
          "name": "",
          "type": "address"
        }
      ],
      "name": "hatcheryMiners",
      "outputs": [
        {
          "internalType": "uint256",
          "name": "",
          "type": "uint256"
        }
      ],
      "stateMutability": "view",
      "type": "function"
    },
    {
      "inputs": [
        {
          "internalType": "address",
          "name": "",
          "type": "address"
        }
      ],
      "name": "lastHatch",
      "outputs": [
        {
          "internalType": "uint256",
          "name": "",
          "type": "uint256"
        }
      ],
      "stateMutability": "view",
      "type": "function"
    },
    {
      "inputs": [],
      "name": "lotteryAddr",
      "outputs": [
        {
          "internalType": "address",
          "name": "",
          "type": "address"
        }
      ],
      "stateMutability": "view",
      "type": "function"
    },
    {
      "inputs": [
        {
          "internalType": "uint256",
          "name": "_amount",
          "type": "uint256"
        }
      ],
      "name": "lotteryPays",
      "outputs": [],
      "stateMutability": "nonpayable",
      "type": "function"
    },
    {
      "inputs": [],
      "name": "marketEggs",
      "outputs": [
        {
          "internalType": "uint256",
          "name": "",
          "type": "uint256"
        }
      ],
      "stateMutability": "view",
      "type": "function"
    },
    {
      "inputs": [],
      "name": "owner",
      "outputs": [
        {
          "internalType": "address",
          "name": "",
          "type": "address"
        }
      ],
      "stateMutability": "view",
      "type": "function"
    },
    {
      "inputs": [
        {
          "internalType": "address",
          "name": "",
          "type": "address"
        }
      ],
      "name": "referrals",
      "outputs": [
        {
          "internalType": "address",
          "name": "",
          "type": "address"
        }
      ],
      "stateMutability": "view",
      "type": "function"
    },
    {
      "inputs": [],
      "name": "renounceOwnership",
      "outputs": [],
      "stateMutability": "nonpayable",
      "type": "function"
    },
    {
      "inputs": [],
      "name": "seedMarket",
      "outputs": [],
      "stateMutability": "nonpayable",
      "type": "function"
    },
    {
      "inputs": [],
      "name": "sellEggs",
      "outputs": [],
      "stateMutability": "nonpayable",
      "type": "function"
    },
    {
      "inputs": [
        {
          "internalType": "address",
          "name": "_lotteryAddr",
          "type": "address"
        }
      ],
      "name": "setLotteryAddr",
      "outputs": [],
      "stateMutability": "nonpayable",
      "type": "function"
    },
    {
      "inputs": [
        {
          "internalType": "address",
          "name": "_tokenAddr",
          "type": "address"
        }
      ],
      "name": "setTokenAddress",
      "outputs": [],
      "stateMutability": "nonpayable",
      "type": "function"
    },
    {
      "inputs": [
        {
          "internalType": "address",
          "name": "newOwner",
          "type": "address"
        }
      ],
      "name": "transferOwnership",
      "outputs": [],
      "stateMutability": "nonpayable",
      "type": "function"
    }
  ],
  "bytecode": "0x6080604052620a2427600355612710600455611388600590815560069081556007556008805460ff1916905534801561003757600080fd5b50600080546001600160a01b031916339081178255604051909182917f8be0079c531659141344cd1fd0a4f28419497f9722a3daafe3b4186f6b6457e0908290a350600280546001600160a01b031916331790556115398061009a6000396000f3fe608060405234801561001057600080fd5b50600436106101ae5760003560e01c8063715018a6116100ee5780638e31632711610097578063a47cc4e011610071578063a47cc4e01461039d578063a507abee146103a5578063d7c8843b146103b8578063f2fde38b146103cb57600080fd5b80638e3163271461034e5780639b3a3880146103615780639ca423b31461037457600080fd5b80637e56fde5116100c85780637e56fde5146103175780638b82d3481461032a5780638da5cb5b1461033d57600080fd5b8063715018a6146102cf57806372670361146102d757806379532aa9146102f757600080fd5b80633955f0fe1161015b5780633ec862a8116101355780633ec862a814610260578063450edf9514610273578063467ece79146102865780634b634b06146102a657600080fd5b80633955f0fe1461023d5780633ad10ef6146102455780633c5f07cb1461025857600080fd5b80632e9392bb1161018c5780632e9392bb146101f65780632ef6a743146101ff5780632f5b15641461021257600080fd5b806312065fe0146101b357806326a4e8d2146101ce57806326fd8422146101e3575b600080fd5b6101bb6103de565b6040519081526020015b60405180910390f35b6101e16101dc366004611372565b610478565b005b6101bb6101f136600461138d565b610511565b6101bb600d5481565b6101bb61020d366004611372565b610527565b600e54610225906001600160a01b031681565b6040516001600160a01b0390911681526020016101c5565b6101e1610558565b600254610225906001600160a01b031681565b6101e1610795565b6101e161026e366004611372565b610832565b6101e16102813660046113af565b610a25565b6101bb610294366004611372565b600b6020526000908152604090205481565b6101bb6102b4366004611372565b6001600160a01b031660009081526009602052604090205490565b6101e1610cfe565b6101bb6102e5366004611372565b600a6020526000908152604090205481565b6101bb610305366004611372565b60096020526000908152604090205481565b6101bb6103253660046113d9565b610dba565b6101e1610338366004611372565b610e55565b6000546001600160a01b0316610225565b6101bb61035c3660046113d9565b610ee9565b6101e161036f3660046113d9565b610f8e565b610225610382366004611372565b600c602052600090815260409020546001600160a01b031681565b6101e1611044565b6101bb6103b3366004611372565b6110da565b6101bb6103c6366004611372565b611109565b6101e16103d9366004611372565b61116d565b6001546040517f70a082310000000000000000000000000000000000000000000000000000000081523060048201526000916001600160a01b0316906370a082319060240160206040518083038186803b15801561043b57600080fd5b505afa15801561044f573d6000803e3d6000fd5b505050506040513d601f19601f8201168201806040525081019061047391906113f2565b905090565b6000546001600160a01b031633146104d75760405162461bcd60e51b815260206004820181905260248201527f4f776e61626c653a2063616c6c6572206973206e6f7420746865206f776e657260448201526064015b60405180910390fd5b600180547fffffffffffffffffffffffff0000000000000000000000000000000000000000166001600160a01b0392909216919091179055565b60006105208383600d546111d0565b9392505050565b6001600160a01b0381166000908152600a60205260408120546105529061054d84611109565b611210565b92915050565b60085460ff166105aa5760405162461bcd60e51b815260206004820152601b60248201527f436f6e7472616374206973206e6f7420696e697469616c697a6564000000000060448201526064016104ce565b60006105b533610527565b905060006105c282610ee9565b905060006105cf8261121c565b336000908152600a60209081526040808320839055600b9091529020429055600d549091506105fe9084611210565b600d556001546002546040517fa9059cbb0000000000000000000000000000000000000000000000000000000081526001600160a01b0391821660048201526024810184905291169063a9059cbb90604401602060405180830381600087803b15801561066a57600080fd5b505af115801561067e573d6000803e3d6000fd5b505050506040513d601f19601f820116820180604052508101906106a2919061140b565b506001546001600160a01b031663a9059cbb336106bf858561122d565b6040517fffffffff0000000000000000000000000000000000000000000000000000000060e085901b1681526001600160a01b0390921660048301526024820152604401602060405180830381600087803b15801561071d57600080fd5b505af1158015610731573d6000803e3d6000fd5b505050506040513d601f19601f82011682018060405250810190610755919061140b565b5060408051338152602081018490527f0cab51182ce6044a3d92186c0d3b642e10af11c17235f35a5c8011ac742c712991015b60405180910390a1505050565b6000546001600160a01b031633146107ef5760405162461bcd60e51b815260206004820181905260248201527f4f776e61626c653a2063616c6c6572206973206e6f7420746865206f776e657260448201526064016104ce565b600d54156107fc57600080fd5b600880547fffffffffffffffffffffffffffffffffffffffffffffffffffffffffffffff001660011790556419254d3800600d55565b60085460ff166108845760405162461bcd60e51b815260206004820152601b60248201527f436f6e7472616374206973206e6f7420696e697469616c697a6564000000000060448201526064016104ce565b6001600160a01b038116331415610899575060005b336000908152600c60205260409020546001600160a01b03161580156108d65750336000818152600c60205260409020546001600160a01b031614155b1561091c57336000908152600c6020526040902080547fffffffffffffffffffffffff0000000000000000000000000000000000000000166001600160a01b0383161790555b600061092733610527565b9050600061093782600354611239565b336000908152600960205260409020549091506109549082611210565b33600090815260096020908152604080832093909355600a808252838320839055600b8252838320429055600c8252838320546001600160a01b03168352905220546007546109b4919061054d906109ad908690611245565b6064611239565b336000908152600c60209081526040808320546001600160a01b03168352600a909152902055600d546109ec9061054d846005611239565b600d5560408051338152602081018390527f65e14e35fa6e0c6714b0e9d5bb2d6a2d1a2e04ffaf77d3804d9340481e92df739101610788565b60085460ff16610a775760405162461bcd60e51b815260206004820152601b60248201527f436f6e7472616374206973206e6f7420696e697469616c697a6564000000000060448201526064016104ce565b6001546040517f23b872dd000000000000000000000000000000000000000000000000000000008152336004820152306024820152604481018390526001600160a01b03909116906323b872dd90606401602060405180830381600087803b158015610ae257600080fd5b505af1158015610af6573d6000803e3d6000fd5b505050506040513d601f19601f82011682018060405250810190610b1a919061140b565b506001546040517f70a082310000000000000000000000000000000000000000000000000000000081523060048201526000916001600160a01b0316906370a082319060240160206040518083038186803b158015610b7857600080fd5b505afa158015610b8c573d6000803e3d6000fd5b505050506040513d601f19601f82011682018060405250810190610bb091906113f2565b90506000610bc2836101f1848661122d565b9050610bd681610bd18361121c565b61122d565b90506000610be38461121c565b6001546002546040517fa9059cbb0000000000000000000000000000000000000000000000000000000081526001600160a01b03918216600482015260248101849052929350169063a9059cbb90604401602060405180830381600087803b158015610c4e57600080fd5b505af1158015610c62573d6000803e3d6000fd5b505050506040513d601f19601f82011682018060405250810190610c86919061140b565b50336000908152600a6020526040902054610ca19083611210565b336000818152600a60209081526040918290209390935580519182529181018690527f3e41902bbad498b5d10fb6357ac429220340d810ebad33a10ecc30010d14b1d5910160405180910390a1610cf785610832565b5050505050565b6000546001600160a01b03163314610d585760405162461bcd60e51b815260206004820181905260248201527f4f776e61626c653a2063616c6c6572206973206e6f7420746865206f776e657260448201526064016104ce565b600080546040516001600160a01b03909116907f8be0079c531659141344cd1fd0a4f28419497f9722a3daafe3b4186f6b6457e0908390a3600080547fffffffffffffffffffffffff0000000000000000000000000000000000000000169055565b6001546040517f70a082310000000000000000000000000000000000000000000000000000000081523060048201526000916105529184916001600160a01b0316906370a082319060240160206040518083038186803b158015610e1d57600080fd5b505afa158015610e31573d6000803e3d6000fd5b505050506040513d601f19601f820116820180604052508101906101f191906113f2565b6000546001600160a01b03163314610eaf5760405162461bcd60e51b815260206004820181905260248201527f4f776e61626c653a2063616c6c6572206973206e6f7420746865206f776e657260448201526064016104ce565b600e80547fffffffffffffffffffffffff0000000000000000000000000000000000000000166001600160a01b0392909216919091179055565b600d546001546040517f70a082310000000000000000000000000000000000000000000000000000000081523060048201526000926105529285926001600160a01b03909116906370a082319060240160206040518083038186803b158015610f5157600080fd5b505afa158015610f65573d6000803e3d6000fd5b505050506040513d601f19601f82011682018060405250810190610f8991906113f2565b6111d0565b600e546001600160a01b0316331461100e5760405162461bcd60e51b815260206004820152603060248201527f4d696e65722063616e206f6e6c792062652066756e6465642077697468696e2060448201527f6c6f747465727920636f6e74726163740000000000000000000000000000000060648201526084016104ce565b6040518181527fa8a9b54bc64b30071f08415b80474bf6b23aebd889064609b45f6e0eda9858fa9060200160405180910390a150565b6000546001600160a01b0316331461109e5760405162461bcd60e51b815260206004820181905260248201527f4f776e61626c653a2063616c6c6572206973206e6f7420746865206f776e657260448201526064016104ce565b6002546040516001600160a01b03909116904780156108fc02916000818181858888f193505050501580156110d7573d6000803e3d6000fd5b50565b6000806110e683610527565b9050806110f65750600092915050565b600061110182610ee9565b949350505050565b60008061114660035461114142600b6000886001600160a01b03166001600160a01b031681526020019081526020016000205461122d565b611251565b6001600160a01b038416600090815260096020526040902054909150610520908290611245565b6000546001600160a01b031633146111c75760405162461bcd60e51b815260206004820181905260248201527f4f776e61626c653a2063616c6c6572206973206e6f7420746865206f776e657260448201526064016104ce565b6110d781611267565b60006111016111e160045484611245565b61120b60055461054d6112056111f96004548a611245565b61054d6005548c611245565b89611239565b611239565b6000610520828461145c565b60006105526109ad83600654611245565b60006105208284611474565b6000610520828461148b565b600061052082846114c6565b60008183106112605781610520565b5090919050565b6001600160a01b0381166112e35760405162461bcd60e51b815260206004820152602660248201527f4f776e61626c653a206e6577206f776e657220697320746865207a65726f206160448201527f646472657373000000000000000000000000000000000000000000000000000060648201526084016104ce565b600080546040516001600160a01b03808516939216917f8be0079c531659141344cd1fd0a4f28419497f9722a3daafe3b4186f6b6457e091a3600080547fffffffffffffffffffffffff0000000000000000000000000000000000000000166001600160a01b0392909216919091179055565b80356001600160a01b038116811461136d57600080fd5b919050565b60006020828403121561138457600080fd5b61052082611356565b600080604083850312156113a057600080fd5b50508035926020909101359150565b600080604083850312156113c257600080fd5b6113cb83611356565b946020939093013593505050565b6000602082840312156113eb57600080fd5b5035919050565b60006020828403121561140457600080fd5b5051919050565b60006020828403121561141d57600080fd5b8151801515811461052057600080fd5b7f4e487b7100000000000000000000000000000000000000000000000000000000600052601160045260246000fd5b6000821982111561146f5761146f61142d565b500190565b6000828210156114865761148661142d565b500390565b6000826114c1577f4e487b7100000000000000000000000000000000000000000000000000000000600052601260045260246000fd5b500490565b6000817fffffffffffffffffffffffffffffffffffffffffffffffffffffffffffffffff04831182151516156114fe576114fe61142d565b50029056fea26469706673582212204eaafe98bb0282f0cd4a62c82366e12b1cfb7045bcb6871775a1285e77b6ce4564736f6c63430008090033",
  "linkReferences": {},
  "deployedLinkReferences": {}
}