{
  "_format": "hh-sol-artifact-1",
  "contractName": "LotteryV1ERC20",
  "sourceName": "contracts/Lotteries/LotteryV1ERC20.sol",
  "abi": [
    {
      "inputs": [],
      "stateMutability": "nonpayable",
      "type": "constructor"
    },
    {
      "inputs": [
        {
          "internalType": "address",
          "name": "have",
          "type": "address"
        },
        {
          "internalType": "address",
          "name": "want",
          "type": "address"
        }
      ],
      "name": "OnlyCoordinatorCanFulfill",
      "type": "error"
    },
    {
      "anonymous": false,
      "inputs": [
        {
          "indexed": true,
          "internalType": "address",
          "name": "_from",
          "type": "address"
        },
        {
          "indexed": false,
          "internalType": "uint256",
          "name": "_blockNumber",
          "type": "uint256"
        },
        {
          "indexed": false,
          "internalType": "uint256",
          "name": "_currentLotteryId",
          "type": "uint256"
        }
      ],
      "name": "numberRequested",
      "type": "event"
    },
    {
      "anonymous": false,
      "inputs": [
        {
          "indexed": true,
          "internalType": "address",
          "name": "_from",
          "type": "address"
        },
        {
          "indexed": false,
          "internalType": "uint256",
          "name": "_winningLottery",
          "type": "uint256"
        },
        {
          "indexed": false,
          "internalType": "uint256",
          "name": "_winningNumber",
          "type": "uint256"
        },
        {
          "indexed": false,
          "internalType": "uint256",
          "name": "_value",
          "type": "uint256"
        }
      ],
      "name": "pickedWinner",
      "type": "event"
    },
    {
      "anonymous": false,
      "inputs": [
        {
          "indexed": true,
          "internalType": "address",
          "name": "_from",
          "type": "address"
        },
        {
          "indexed": false,
          "internalType": "uint256",
          "name": "_quantity",
          "type": "uint256"
        },
        {
          "indexed": false,
          "internalType": "uint256",
          "name": "_value",
          "type": "uint256"
        }
      ],
      "name": "purchasedTickets",
      "type": "event"
    },
    {
      "inputs": [],
      "name": "CashBack",
      "outputs": [],
      "stateMutability": "nonpayable",
      "type": "function"
    },
    {
      "inputs": [
        {
          "internalType": "uint256",
          "name": "numberOfTickets",
          "type": "uint256"
        }
      ],
      "name": "buyTickets",
      "outputs": [],
      "stateMutability": "nonpayable",
      "type": "function"
    },
    {
      "inputs": [],
      "name": "currentLotteryId",
      "outputs": [
        {
          "internalType": "uint256",
          "name": "",
          "type": "uint256"
        }
      ],
      "stateMutability": "view",
      "type": "function"
    },
    {
      "inputs": [],
      "name": "dealerAddr",
      "outputs": [
        {
          "internalType": "address",
          "name": "",
          "type": "address"
        }
      ],
      "stateMutability": "view",
      "type": "function"
    },
    {
      "inputs": [],
      "name": "dealerFee",
      "outputs": [
        {
          "internalType": "uint256",
          "name": "",
          "type": "uint256"
        }
      ],
      "stateMutability": "view",
      "type": "function"
    },
    {
      "inputs": [],
      "name": "getBalance",
      "outputs": [
        {
          "internalType": "uint256",
          "name": "",
          "type": "uint256"
        }
      ],
      "stateMutability": "view",
      "type": "function"
    },
    {
      "inputs": [
        {
          "internalType": "uint256",
          "name": "_ticketId",
          "type": "uint256"
        }
      ],
      "name": "getPlayerByTicketId",
      "outputs": [
        {
          "internalType": "address",
          "name": "",
          "type": "address"
        }
      ],
      "stateMutability": "view",
      "type": "function"
    },
    {
      "inputs": [],
      "name": "getSoldTickets",
      "outputs": [
        {
          "internalType": "uint256",
          "name": "",
          "type": "uint256"
        }
      ],
      "stateMutability": "view",
      "type": "function"
    },
    {
      "inputs": [],
      "name": "getTicketPrice",
      "outputs": [
        {
          "internalType": "uint256",
          "name": "",
          "type": "uint256"
        }
      ],
      "stateMutability": "view",
      "type": "function"
    },
    {
      "inputs": [
        {
          "internalType": "address",
          "name": "_userAddress",
          "type": "address"
        }
      ],
      "name": "getUserTickets",
      "outputs": [
        {
          "internalType": "uint256",
          "name": "",
          "type": "uint256"
        }
      ],
      "stateMutability": "view",
      "type": "function"
    },
    {
      "inputs": [
        {
          "internalType": "uint256",
          "name": "_lotteryId",
          "type": "uint256"
        }
      ],
      "name": "getWinnerByLotteryId",
      "outputs": [
        {
          "internalType": "address",
          "name": "",
          "type": "address"
        }
      ],
      "stateMutability": "view",
      "type": "function"
    },
    {
      "inputs": [],
      "name": "lastRandomNumber",
      "outputs": [
        {
          "internalType": "uint256",
          "name": "",
          "type": "uint256"
        }
      ],
      "stateMutability": "view",
      "type": "function"
    },
    {
      "inputs": [],
      "name": "lotteryFee",
      "outputs": [
        {
          "internalType": "uint256",
          "name": "",
          "type": "uint256"
        }
      ],
      "stateMutability": "view",
      "type": "function"
    },
    {
      "inputs": [
        {
          "internalType": "uint256",
          "name": "",
          "type": "uint256"
        }
      ],
      "name": "lotterys",
      "outputs": [
        {
          "internalType": "uint256",
          "name": "id",
          "type": "uint256"
        },
        {
          "internalType": "uint256",
          "name": "soldTickets",
          "type": "uint256"
        },
        {
          "internalType": "uint256",
          "name": "winningNumber",
          "type": "uint256"
        },
        {
          "internalType": "uint256",
          "name": "wonAmount",
          "type": "uint256"
        },
        {
          "internalType": "address",
          "name": "winner",
          "type": "address"
        }
      ],
      "stateMutability": "view",
      "type": "function"
    },
    {
      "inputs": [],
      "name": "minerAddr",
      "outputs": [
        {
          "internalType": "address",
          "name": "",
          "type": "address"
        }
      ],
      "stateMutability": "view",
      "type": "function"
    },
    {
      "inputs": [],
      "name": "minerFee",
      "outputs": [
        {
          "internalType": "uint256",
          "name": "",
          "type": "uint256"
        }
      ],
      "stateMutability": "view",
      "type": "function"
    },
    {
      "inputs": [],
      "name": "ownerAddr",
      "outputs": [
        {
          "internalType": "address",
          "name": "",
          "type": "address"
        }
      ],
      "stateMutability": "view",
      "type": "function"
    },
    {
      "inputs": [],
      "name": "pickWinner",
      "outputs": [],
      "stateMutability": "nonpayable",
      "type": "function"
    },
    {
      "inputs": [
        {
          "internalType": "uint256",
          "name": "requestId",
          "type": "uint256"
        },
        {
          "internalType": "uint256[]",
          "name": "randomWords",
          "type": "uint256[]"
        }
      ],
      "name": "rawFulfillRandomWords",
      "outputs": [],
      "stateMutability": "nonpayable",
      "type": "function"
    },
    {
      "inputs": [
        {
          "internalType": "uint32",
          "name": "_gasLimitPrice",
          "type": "uint32"
        }
      ],
      "name": "setGasLimitPrice",
      "outputs": [],
      "stateMutability": "nonpayable",
      "type": "function"
    },
    {
      "inputs": [
        {
          "internalType": "address",
          "name": "_minerAddr",
          "type": "address"
        }
      ],
      "name": "setMinerAddress",
      "outputs": [],
      "stateMutability": "nonpayable",
      "type": "function"
    },
    {
      "inputs": [
        {
          "internalType": "uint256",
          "name": "_ticketPrice",
          "type": "uint256"
        }
      ],
      "name": "setTicketPrice",
      "outputs": [],
      "stateMutability": "nonpayable",
      "type": "function"
    },
    {
      "inputs": [
        {
          "internalType": "address",
          "name": "_tokenAddr",
          "type": "address"
        }
      ],
      "name": "setTokenAddress",
      "outputs": [],
      "stateMutability": "nonpayable",
      "type": "function"
    },
    {
      "inputs": [],
      "name": "ticketPrice",
      "outputs": [
        {
          "internalType": "uint256",
          "name": "",
          "type": "uint256"
        }
      ],
      "stateMutability": "view",
      "type": "function"
    },
    {
      "inputs": [],
      "name": "token",
      "outputs": [
        {
          "internalType": "address",
          "name": "",
          "type": "address"
        }
      ],
      "stateMutability": "view",
      "type": "function"
    }
  ],
  "bytecode": "0x60a06040527f6a2aad07396b36fe02a22b33cf443582f682c82f00030d400000000000000708600a557fd4bb89654db74673a187bd804519e65e3f71a52bc55f11da7601a13dcf505314600b55600c805465ffffffffffff19166201000317905534801561006c57600080fd5b50600a80546001600160a01b036c01000000000000000000000000909104166080819052600080546001600160a01b0319908116909217815560028054831633908117909155600380548416909117905560048054909216733347d97384eb516782090a52958d8dcd54269a2117909155600e6020527fe710864318d4a32f37d6ce54cb3fadbef648dd12d8dbdf53973564d56b7f881c819055600160098190558082527fa7c5ba7114a813b50159add3a36832908dc83db71d0b9a24c2ad0f83be958207557fa7c5ba7114a813b50159add3a36832908dc83db71d0b9a24c2ad0f83be95820855662386f26fc1000060085560058080556006919091556007556080516116d761018f6000396000818161058801526105f001526116d76000f3fe608060405234801561001057600080fd5b50600436106101a35760003560e01c80635d495aea116100ee578063992f7db311610097578063a47cc4e011610071578063a47cc4e01461041b578063ae19353d14610423578063cc7456e614610436578063fc0c546a1461048057600080fd5b8063992f7db3146103b95780639c675eaa146103f2578063a0ca868e1461041257600080fd5b806378aa08ed116100c857806378aa08ed146103175780637e3d88031461032057806387bb7ae0146103b157600080fd5b80635d495aea146102f35780636be4097c146102fb578063773f611d1461030457600080fd5b80631fe543e3116101505780632aa51bdf1161012a5780632aa51bdf146102bd5780632f366637146102d7578063502d0e10146102ea57600080fd5b80631fe543e31461028e57806321e1ba4e146102a157806326a4e8d2146102aa57600080fd5b80631598165011610181578063159816501461021457806319f5ae36146102295780631a5a1c681461026e57600080fd5b80630484a22f146101a857806312065fe0146102035780631209b1f61461020b575b600080fd5b6101f06101b6366004611379565b6009546000908152600e6020908152604080832073ffffffffffffffffffffffffffffffffffffffff909416835260059093019052205490565b6040519081526020015b60405180910390f35b6101f06104a0565b6101f060085481565b6102276102223660046113b6565b610547565b005b6004546102499073ffffffffffffffffffffffffffffffffffffffff1681565b60405173ffffffffffffffffffffffffffffffffffffffff90911681526020016101fa565b6002546102499073ffffffffffffffffffffffffffffffffffffffff1681565b61022761029c3660046113fe565b610570565b6101f0600d5481565b6102276102b8366004611379565b610630565b6009546000908152600e60205260409020600101546101f0565b6102276102e53660046113b6565b61069b565b6101f060055481565b6102276109ca565b6101f060095481565b6102276103123660046114e6565b610b9d565b6101f060075481565b61037361032e3660046113b6565b600e60205260009081526040902080546001820154600283015460038401546004909401549293919290919073ffffffffffffffffffffffffffffffffffffffff1685565b60408051958652602086019490945292840191909152606083015273ffffffffffffffffffffffffffffffffffffffff16608082015260a0016101fa565b6008546101f0565b6102496103c73660046113b6565b6000908152600e602052604090206004015473ffffffffffffffffffffffffffffffffffffffff1690565b6003546102499073ffffffffffffffffffffffffffffffffffffffff1681565b6101f060065481565b610227610c04565b610227610431366004611379565b610d7a565b6102496104443660046113b6565b6009546000908152600e6020908152604080832093835260069093019052206001015473ffffffffffffffffffffffffffffffffffffffff1690565b6001546102499073ffffffffffffffffffffffffffffffffffffffff1681565b6001546040517f70a0823100000000000000000000000000000000000000000000000000000000815230600482015260009173ffffffffffffffffffffffffffffffffffffffff16906370a082319060240160206040518083038186803b15801561050a57600080fd5b505afa15801561051e573d6000803e3d6000fd5b505050506040513d601f19601f82011682018060405250810190610542919061150c565b905090565b60025473ffffffffffffffffffffffffffffffffffffffff16331461056b57600080fd5b600855565b3373ffffffffffffffffffffffffffffffffffffffff7f00000000000000000000000000000000000000000000000000000000000000001614610622576040517f1cf993f400000000000000000000000000000000000000000000000000000000815233600482015273ffffffffffffffffffffffffffffffffffffffff7f00000000000000000000000000000000000000000000000000000000000000001660248201526044015b60405180910390fd5b61062c8282610de5565b5050565b60025473ffffffffffffffffffffffffffffffffffffffff16331461065457600080fd5b600180547fffffffffffffffffffffffff00000000000000000000000000000000000000001673ffffffffffffffffffffffffffffffffffffffff92909216919091179055565b60005474010000000000000000000000000000000000000000900460ff1615610746576040517f08c379a000000000000000000000000000000000000000000000000000000000815260206004820152603960248201527f4c6f74746572792069732073656c656374696e672077696e6e65722c20706c6560448201527f617365207761697420756e74696c206e65787420726f756e64000000000000006064820152608401610619565b600080547fffffffffffffffffffffff00ffffffffffffffffffffffffffffffffffffffff16740100000000000000000000000000000000000000001781556008546107929083611554565b6001546040517f23b872dd0000000000000000000000000000000000000000000000000000000081523360048201523060248201526044810183905291925073ffffffffffffffffffffffffffffffffffffffff16906323b872dd90606401602060405180830381600087803b15801561080b57600080fd5b505af115801561081f573d6000803e3d6000fd5b505050506040513d601f19601f820116820180604052508101906108439190611591565b506000805b83811015610911576009546000908152600e60205260409020600190810154610870916115b3565b604080518082018252828152336020808301918252600980546000908152600e8084528682208883526006018452868220955186559351600195860180547fffffffffffffffffffffffff00000000000000000000000000000000000000001673ffffffffffffffffffffffffffffffffffffffff909216919091179055905481529190529190912001819055915080610909816115cb565b915050610848565b506009546000908152600e6020908152604080832033845260050190915290205461093d9084906115b3565b6009546000908152600e602090815260408083203380855260059091018352928190209390935560085483518781529182015290917feb84ef4e9ca60980567537f4bdb192fd4716c093e1e661277af14cec7468d1d4910160405180910390a25050600080547fffffffffffffffffffffff00ffffffffffffffffffffffffffffffffffffffff16905550565b60025473ffffffffffffffffffffffffffffffffffffffff1633146109ee57600080fd5b6009546000908152600e6020526040902060010154610a69576040517f08c379a000000000000000000000000000000000000000000000000000000000815260206004820152601160248201527f536f6c64205469636b65747320697320300000000000000000000000000000006044820152606401610619565b600054600b54600a54600c546040517f5d3b1d30000000000000000000000000000000000000000000000000000000008152600481019390935267ffffffffffffffff8216602484015261ffff8116604484015263ffffffff680100000000000000009092048216606484015262010000900416608482015273ffffffffffffffffffffffffffffffffffffffff90911690635d3b1d309060a401602060405180830381600087803b158015610b1e57600080fd5b505af1158015610b32573d6000803e3d6000fd5b505050506040513d601f19601f82011682018060405250810190610b56919061150c565b5060095460405133917fb216020e4741bec6d260b23edcee6756ee96ee22d74a365e0d0e7716f7ce7cee91610b9391438252602082015260400190565b60405180910390a2565b60025473ffffffffffffffffffffffffffffffffffffffff163314610bc157600080fd5b600a805463ffffffff90921668010000000000000000027fffffffffffffffffffffffffffffffffffffffff00000000ffffffffffffffff909216919091179055565b60025473ffffffffffffffffffffffffffffffffffffffff163314610c2857600080fd5b6001546040517f70a0823100000000000000000000000000000000000000000000000000000000815230600482015260009173ffffffffffffffffffffffffffffffffffffffff16906370a082319060240160206040518083038186803b158015610c9257600080fd5b505afa158015610ca6573d6000803e3d6000fd5b505050506040513d601f19601f82011682018060405250810190610cca919061150c565b6001546002546040517fa9059cbb00000000000000000000000000000000000000000000000000000000815273ffffffffffffffffffffffffffffffffffffffff918216600482015260248101849052929350169063a9059cbb90604401602060405180830381600087803b158015610d4257600080fd5b505af1158015610d56573d6000803e3d6000fd5b505050506040513d601f19601f8201168201806040525081019061062c9190611591565b60025473ffffffffffffffffffffffffffffffffffffffff163314610d9e57600080fd5b600480547fffffffffffffffffffffffff00000000000000000000000000000000000000001673ffffffffffffffffffffffffffffffffffffffff92909216919091179055565b80600081518110610df857610df8611604565b6020026020010151600d8190555061062c60005474010000000000000000000000000000000000000000900460ff1615610eb4576040517f08c379a000000000000000000000000000000000000000000000000000000000815260206004820152603960248201527f4c6f74746572792069732073656c656374696e672077696e6e65722c20706c6560448201527f617365207761697420756e74696c206e65787420726f756e64000000000000006064820152608401610619565b600080547fffffffffffffffffffffff00ffffffffffffffffffffffffffffffffffffffff1674010000000000000000000000000000000000000000178155600954808252600e602052604082206001908101549192911415610f1957506001610f46565b6000828152600e6020526040902060010154600d54610f389190611662565b610f439060016115b3565b90505b6000828152600e6020818152604080842085855260068101835290842060010154868552929091526004810180547fffffffffffffffffffffffff00000000000000000000000000000000000000001673ffffffffffffffffffffffffffffffffffffffff90931692909217909155600201829055600554606490610fcb9047611554565b610fd59190611676565b90506000606460065447610fe99190611554565b610ff39190611676565b905060006064600754476110079190611554565b6110119190611676565b905060008183611021864761168a565b61102b919061168a565b611035919061168a565b6000878152600e60205260408120600301829055600980549293509061105a836115cb565b90915550506001546002546040517fa9059cbb00000000000000000000000000000000000000000000000000000000815273ffffffffffffffffffffffffffffffffffffffff91821660048201526024810187905291169063a9059cbb90604401602060405180830381600087803b1580156110d557600080fd5b505af11580156110e9573d6000803e3d6000fd5b505050506040513d601f19601f8201168201806040525081019061110d9190611591565b50600154600480546040517fa9059cbb00000000000000000000000000000000000000000000000000000000815273ffffffffffffffffffffffffffffffffffffffff91821692810192909252602482018690529091169063a9059cbb90604401602060405180830381600087803b15801561118857600080fd5b505af115801561119c573d6000803e3d6000fd5b505050506040513d601f19601f820116820180604052508101906111c09190611591565b506001546000878152600e60205260409081902060049081015491517fa9059cbb00000000000000000000000000000000000000000000000000000000815273ffffffffffffffffffffffffffffffffffffffff928316918101919091526024810184905291169063a9059cbb90604401602060405180830381600087803b15801561124b57600080fd5b505af115801561125f573d6000803e3d6000fd5b505050506040513d601f19601f820116820180604052508101906112839190611591565b50600480546040517f9b3a388000000000000000000000000000000000000000000000000000000000815291820185905273ffffffffffffffffffffffffffffffffffffffff1690639b3a388090602401600060405180830381600087803b1580156112ee57600080fd5b505af1158015611302573d6000803e3d6000fd5b505060408051898152602081018990529081018490523392507fdfd58b1eb4de0aa425c7e522eb9faa8fc6acce1e55b394b9de379ea3d859cba3915060600160405180910390a25050600080547fffffffffffffffffffffff00ffffffffffffffffffffffffffffffffffffffff16905550505050565b60006020828403121561138b57600080fd5b813573ffffffffffffffffffffffffffffffffffffffff811681146113af57600080fd5b9392505050565b6000602082840312156113c857600080fd5b5035919050565b7f4e487b7100000000000000000000000000000000000000000000000000000000600052604160045260246000fd5b6000806040838503121561141157600080fd5b8235915060208084013567ffffffffffffffff8082111561143157600080fd5b818601915086601f83011261144557600080fd5b813581811115611457576114576113cf565b8060051b6040517fffffffffffffffffffffffffffffffffffffffffffffffffffffffffffffffe0603f8301168101818110858211171561149a5761149a6113cf565b6040529182528482019250838101850191898311156114b857600080fd5b938501935b828510156114d6578435845293850193928501926114bd565b8096505050505050509250929050565b6000602082840312156114f857600080fd5b813563ffffffff811681146113af57600080fd5b60006020828403121561151e57600080fd5b5051919050565b7f4e487b7100000000000000000000000000000000000000000000000000000000600052601160045260246000fd5b6000817fffffffffffffffffffffffffffffffffffffffffffffffffffffffffffffffff048311821515161561158c5761158c611525565b500290565b6000602082840312156115a357600080fd5b815180151581146113af57600080fd5b600082198211156115c6576115c6611525565b500190565b60007fffffffffffffffffffffffffffffffffffffffffffffffffffffffffffffffff8214156115fd576115fd611525565b5060010190565b7f4e487b7100000000000000000000000000000000000000000000000000000000600052603260045260246000fd5b7f4e487b7100000000000000000000000000000000000000000000000000000000600052601260045260246000fd5b60008261167157611671611633565b500690565b60008261168557611685611633565b500490565b60008282101561169c5761169c611525565b50039056fea2646970667358221220a2419794867f1ba1801f719a76dfc56eab9066e6f4d3c6d6b86c5ccad2b18e5164736f6c63430008090033",
  "linkReferences": {},
  "deployedLinkReferences": {}
}