{
  "_format": "hh-sol-artifact-1",
  "contractName": "LotteryV1Native",
  "sourceName": "contracts/Lotteries/LotteryV1Native.sol",
  "abi": [
    {
      "inputs": [],
      "stateMutability": "nonpayable",
      "type": "constructor"
    },
    {
      "inputs": [
        {
          "internalType": "address",
          "name": "have",
          "type": "address"
        },
        {
          "internalType": "address",
          "name": "want",
          "type": "address"
        }
      ],
      "name": "OnlyCoordinatorCanFulfill",
      "type": "error"
    },
    {
      "anonymous": false,
      "inputs": [
        {
          "indexed": true,
          "internalType": "address",
          "name": "_from",
          "type": "address"
        },
        {
          "indexed": false,
          "internalType": "uint256",
          "name": "_blockNumber",
          "type": "uint256"
        },
        {
          "indexed": false,
          "internalType": "uint256",
          "name": "_currentLotteryId",
          "type": "uint256"
        }
      ],
      "name": "numberRequested",
      "type": "event"
    },
    {
      "anonymous": false,
      "inputs": [
        {
          "indexed": true,
          "internalType": "address",
          "name": "_from",
          "type": "address"
        },
        {
          "indexed": false,
          "internalType": "uint256",
          "name": "_lotteryId",
          "type": "uint256"
        },
        {
          "indexed": true,
          "internalType": "address",
          "name": "_winnerAddress",
          "type": "address"
        },
        {
          "indexed": false,
          "internalType": "uint256",
          "name": "_winningNumber",
          "type": "uint256"
        },
        {
          "indexed": false,
          "internalType": "uint256",
          "name": "_value",
          "type": "uint256"
        }
      ],
      "name": "pickedWinner",
      "type": "event"
    },
    {
      "anonymous": false,
      "inputs": [
        {
          "indexed": true,
          "internalType": "address",
          "name": "_from",
          "type": "address"
        },
        {
          "indexed": false,
          "internalType": "uint256",
          "name": "_quantity",
          "type": "uint256"
        },
        {
          "indexed": false,
          "internalType": "uint256",
          "name": "_value",
          "type": "uint256"
        }
      ],
      "name": "purchasedTickets",
      "type": "event"
    },
    {
      "inputs": [],
      "name": "CashBack",
      "outputs": [],
      "stateMutability": "nonpayable",
      "type": "function"
    },
    {
      "inputs": [
        {
          "internalType": "uint256",
          "name": "numberOfTickets",
          "type": "uint256"
        }
      ],
      "name": "buyTickets",
      "outputs": [],
      "stateMutability": "payable",
      "type": "function"
    },
    {
      "inputs": [],
      "name": "currentLotteryId",
      "outputs": [
        {
          "internalType": "uint256",
          "name": "",
          "type": "uint256"
        }
      ],
      "stateMutability": "view",
      "type": "function"
    },
    {
      "inputs": [],
      "name": "dealerAddr",
      "outputs": [
        {
          "internalType": "address",
          "name": "",
          "type": "address"
        }
      ],
      "stateMutability": "view",
      "type": "function"
    },
    {
      "inputs": [],
      "name": "dealerFee",
      "outputs": [
        {
          "internalType": "uint256",
          "name": "",
          "type": "uint256"
        }
      ],
      "stateMutability": "view",
      "type": "function"
    },
    {
      "inputs": [],
      "name": "getBalance",
      "outputs": [
        {
          "internalType": "uint256",
          "name": "",
          "type": "uint256"
        }
      ],
      "stateMutability": "view",
      "type": "function"
    },
    {
      "inputs": [
        {
          "internalType": "uint256",
          "name": "_ticketId",
          "type": "uint256"
        }
      ],
      "name": "getPlayerByTicketId",
      "outputs": [
        {
          "internalType": "address",
          "name": "",
          "type": "address"
        }
      ],
      "stateMutability": "view",
      "type": "function"
    },
    {
      "inputs": [],
      "name": "getSoldTickets",
      "outputs": [
        {
          "internalType": "uint256",
          "name": "",
          "type": "uint256"
        }
      ],
      "stateMutability": "view",
      "type": "function"
    },
    {
      "inputs": [],
      "name": "getTicketPrice",
      "outputs": [
        {
          "internalType": "uint256",
          "name": "",
          "type": "uint256"
        }
      ],
      "stateMutability": "view",
      "type": "function"
    },
    {
      "inputs": [
        {
          "internalType": "address",
          "name": "_userAddress",
          "type": "address"
        }
      ],
      "name": "getUserTickets",
      "outputs": [
        {
          "internalType": "uint256",
          "name": "",
          "type": "uint256"
        }
      ],
      "stateMutability": "view",
      "type": "function"
    },
    {
      "inputs": [
        {
          "internalType": "uint256",
          "name": "_lotteryId",
          "type": "uint256"
        }
      ],
      "name": "getWinnerByLotteryId",
      "outputs": [
        {
          "internalType": "address",
          "name": "",
          "type": "address"
        }
      ],
      "stateMutability": "view",
      "type": "function"
    },
    {
      "inputs": [],
      "name": "lastRandomNumber",
      "outputs": [
        {
          "internalType": "uint256",
          "name": "",
          "type": "uint256"
        }
      ],
      "stateMutability": "view",
      "type": "function"
    },
    {
      "inputs": [],
      "name": "lotteryFee",
      "outputs": [
        {
          "internalType": "uint256",
          "name": "",
          "type": "uint256"
        }
      ],
      "stateMutability": "view",
      "type": "function"
    },
    {
      "inputs": [
        {
          "internalType": "uint256",
          "name": "",
          "type": "uint256"
        }
      ],
      "name": "lotterys",
      "outputs": [
        {
          "internalType": "uint256",
          "name": "id",
          "type": "uint256"
        },
        {
          "internalType": "uint256",
          "name": "soldTickets",
          "type": "uint256"
        },
        {
          "internalType": "uint256",
          "name": "winningNumber",
          "type": "uint256"
        },
        {
          "internalType": "uint256",
          "name": "wonAmount",
          "type": "uint256"
        },
        {
          "internalType": "address",
          "name": "winner",
          "type": "address"
        }
      ],
      "stateMutability": "view",
      "type": "function"
    },
    {
      "inputs": [],
      "name": "minerAddr",
      "outputs": [
        {
          "internalType": "address",
          "name": "",
          "type": "address"
        }
      ],
      "stateMutability": "view",
      "type": "function"
    },
    {
      "inputs": [],
      "name": "minerFee",
      "outputs": [
        {
          "internalType": "uint256",
          "name": "",
          "type": "uint256"
        }
      ],
      "stateMutability": "view",
      "type": "function"
    },
    {
      "inputs": [],
      "name": "ownerAddr",
      "outputs": [
        {
          "internalType": "address",
          "name": "",
          "type": "address"
        }
      ],
      "stateMutability": "view",
      "type": "function"
    },
    {
      "inputs": [],
      "name": "pickWinner",
      "outputs": [],
      "stateMutability": "nonpayable",
      "type": "function"
    },
    {
      "inputs": [
        {
          "internalType": "uint256",
          "name": "requestId",
          "type": "uint256"
        },
        {
          "internalType": "uint256[]",
          "name": "randomWords",
          "type": "uint256[]"
        }
      ],
      "name": "rawFulfillRandomWords",
      "outputs": [],
      "stateMutability": "nonpayable",
      "type": "function"
    },
    {
      "inputs": [
        {
          "internalType": "uint32",
          "name": "_gasLimitPrice",
          "type": "uint32"
        }
      ],
      "name": "setGasLimitPrice",
      "outputs": [],
      "stateMutability": "nonpayable",
      "type": "function"
    },
    {
      "inputs": [
        {
          "internalType": "address",
          "name": "_minerAddr",
          "type": "address"
        }
      ],
      "name": "setMinerAddress",
      "outputs": [],
      "stateMutability": "nonpayable",
      "type": "function"
    },
    {
      "inputs": [
        {
          "internalType": "uint256",
          "name": "_ticketPrice",
          "type": "uint256"
        }
      ],
      "name": "setTicketPrice",
      "outputs": [],
      "stateMutability": "nonpayable",
      "type": "function"
    },
    {
      "inputs": [],
      "name": "ticketPrice",
      "outputs": [
        {
          "internalType": "uint256",
          "name": "",
          "type": "uint256"
        }
      ],
      "stateMutability": "view",
      "type": "function"
    }
  ],
  "bytecode": "0x60a06040527f6a2aad07396b36fe02a22b33cf443582f682c82f00030d4000000000000007086009557fd4bb89654db74673a187bd804519e65e3f71a52bc55f11da7601a13dcf505314600a55600b805465ffffffffffff19166201000317905534801561006c57600080fd5b506009546001600160a01b036c01000000000000000000000000909104166080819052600080546001600160a01b031990811683178255600180548216339081178255600280548416909117905560038054909216733347d97384eb516782090a52958d8dcd54269a2117909155600d6020527f81955a0a11e65eac625c29e8882660bae4e165a75d72780094acae8ece9a29ee82905560088190558082527ffd54ff1ed53f34a900b24c5ba64f85761163b5d82d98a47b9bd80e45466993c5557ffd54ff1ed53f34a900b24c5ba64f85761163b5d82d98a47b9bd80e45466993c6819055662386f26fc1000060075560056004819055600a81556006556113bd906101899039600081816105a7015261060f01526113bd6000f3fe6080604052600436106101805760003560e01c80635d495aea116100d6578063992f7db31161007f578063a47cc4e011610059578063a47cc4e0146104da578063ae19353d146104ef578063cc7456e61461050f57600080fd5b8063992f7db3146104515780639c675eaa14610497578063a0ca868e146104c457600080fd5b806378aa08ed116100b057806378aa08ed146103885780637e3d88031461039e57806387bb7ae01461043c57600080fd5b80635d495aea1461033d5780636be4097c14610352578063773f611d1461036857600080fd5b80631a5a1c68116101385780632aa51bdf116101125780632aa51bdf146102ed5780632f36663714610314578063502d0e101461032757600080fd5b80631a5a1c681461028a5780631fe543e3146102b757806321e1ba4e146102d757600080fd5b80631209b1f6116101695780631209b1f614610200578063159816501461021657806319f5ae361461023857600080fd5b80630484a22f1461018557806312065fe0146101ed575b600080fd5b34801561019157600080fd5b506101da6101a0366004611081565b6008546000908152600d6020908152604080832073ffffffffffffffffffffffffffffffffffffffff909416835260059093019052205490565b6040519081526020015b60405180910390f35b3480156101f957600080fd5b50476101da565b34801561020c57600080fd5b506101da60075481565b34801561022257600080fd5b506102366102313660046110be565b610566565b005b34801561024457600080fd5b506003546102659073ffffffffffffffffffffffffffffffffffffffff1681565b60405173ffffffffffffffffffffffffffffffffffffffff90911681526020016101e4565b34801561029657600080fd5b506001546102659073ffffffffffffffffffffffffffffffffffffffff1681565b3480156102c357600080fd5b506102366102d2366004611106565b61058f565b3480156102e357600080fd5b506101da600c5481565b3480156102f957600080fd5b506008546000908152600d60205260409020600101546101da565b6102366103223660046110be565b61064f565b34801561033357600080fd5b506101da60045481565b34801561034957600080fd5b50610236610936565b34801561035e57600080fd5b506101da60085481565b34801561037457600080fd5b506102366103833660046111ee565b610b09565b34801561039457600080fd5b506101da60065481565b3480156103aa57600080fd5b506103fe6103b93660046110be565b600d60205260009081526040902080546001820154600283015460038401546004909401549293919290919073ffffffffffffffffffffffffffffffffffffffff1685565b60408051958652602086019490945292840191909152606083015273ffffffffffffffffffffffffffffffffffffffff16608082015260a0016101e4565b34801561044857600080fd5b506007546101da565b34801561045d57600080fd5b5061026561046c3660046110be565b6000908152600d602052604090206004015473ffffffffffffffffffffffffffffffffffffffff1690565b3480156104a357600080fd5b506002546102659073ffffffffffffffffffffffffffffffffffffffff1681565b3480156104d057600080fd5b506101da60055481565b3480156104e657600080fd5b50610236610b70565b3480156104fb57600080fd5b5061023661050a366004611081565b610bdb565b34801561051b57600080fd5b5061026561052a3660046110be565b6008546000908152600d6020908152604080832093835260069093019052206001015473ffffffffffffffffffffffffffffffffffffffff1690565b60015473ffffffffffffffffffffffffffffffffffffffff16331461058a57600080fd5b600755565b3373ffffffffffffffffffffffffffffffffffffffff7f00000000000000000000000000000000000000000000000000000000000000001614610641576040517f1cf993f400000000000000000000000000000000000000000000000000000000815233600482015273ffffffffffffffffffffffffffffffffffffffff7f00000000000000000000000000000000000000000000000000000000000000001660248201526044015b60405180910390fd5b61064b8282610c46565b5050565b60005474010000000000000000000000000000000000000000900460ff16156106fa576040517f08c379a000000000000000000000000000000000000000000000000000000000815260206004820152603960248201527f4c6f74746572792069732073656c656374696e672077696e6e65722c20706c6560448201527f617365207761697420756e74696c206e65787420726f756e64000000000000006064820152608401610638565b600080547fffffffffffffffffffffff00ffffffffffffffffffffffffffffffffffffffff16740100000000000000000000000000000000000000001781556007546107469083611243565b90508034146107b1576040517f08c379a000000000000000000000000000000000000000000000000000000000815260206004820152601660248201527f5469636b657420707269636520696e636f7272656374000000000000000000006044820152606401610638565b6000805b8381101561087e576008546000908152600d602052604090206001908101546107dd91611280565b604080518082018252828152336020808301918252600880546000908152600d8084528682208883526006018452868220955186559351600195860180547fffffffffffffffffffffffff00000000000000000000000000000000000000001673ffffffffffffffffffffffffffffffffffffffff90921691909117905590548152919052919091200181905591508061087681611298565b9150506107b5565b506008546000908152600d602090815260408083203384526005019091529020546108aa908490611280565b6008546000908152600d6020908152604080832033808552600590910183529281902093909355825186815290810185905290917feb84ef4e9ca60980567537f4bdb192fd4716c093e1e661277af14cec7468d1d4910160405180910390a25050600080547fffffffffffffffffffffff00ffffffffffffffffffffffffffffffffffffffff16905550565b60015473ffffffffffffffffffffffffffffffffffffffff16331461095a57600080fd5b6008546000908152600d60205260409020600101546109d5576040517f08c379a000000000000000000000000000000000000000000000000000000000815260206004820152601160248201527f536f6c64205469636b65747320697320300000000000000000000000000000006044820152606401610638565b600054600a54600954600b546040517f5d3b1d30000000000000000000000000000000000000000000000000000000008152600481019390935267ffffffffffffffff8216602484015261ffff8116604484015263ffffffff680100000000000000009092048216606484015262010000900416608482015273ffffffffffffffffffffffffffffffffffffffff90911690635d3b1d309060a401602060405180830381600087803b158015610a8a57600080fd5b505af1158015610a9e573d6000803e3d6000fd5b505050506040513d601f19601f82011682018060405250810190610ac291906112d1565b5060085460405133917fb216020e4741bec6d260b23edcee6756ee96ee22d74a365e0d0e7716f7ce7cee91610aff91438252602082015260400190565b60405180910390a2565b60015473ffffffffffffffffffffffffffffffffffffffff163314610b2d57600080fd5b6009805463ffffffff90921668010000000000000000027fffffffffffffffffffffffffffffffffffffffff00000000ffffffffffffffff909216919091179055565b60015473ffffffffffffffffffffffffffffffffffffffff163314610b9457600080fd5b600154604051479173ffffffffffffffffffffffffffffffffffffffff169082156108fc029083906000818181858888f1935050505015801561064b573d6000803e3d6000fd5b60015473ffffffffffffffffffffffffffffffffffffffff163314610bff57600080fd5b600380547fffffffffffffffffffffffff00000000000000000000000000000000000000001673ffffffffffffffffffffffffffffffffffffffff92909216919091179055565b80600081518110610c5957610c596112ea565b6020026020010151600c8190555061064b60005474010000000000000000000000000000000000000000900460ff1615610d15576040517f08c379a000000000000000000000000000000000000000000000000000000000815260206004820152603960248201527f4c6f74746572792069732073656c656374696e672077696e6e65722c20706c6560448201527f617365207761697420756e74696c206e65787420726f756e64000000000000006064820152608401610638565b600080547fffffffffffffffffffffff00ffffffffffffffffffffffffffffffffffffffff1674010000000000000000000000000000000000000000178155600854808252600d602052604082206001908101549192911415610d7a57506001610da7565b6000828152600d6020526040902060010154600c54610d999190611348565b610da4906001611280565b90505b6000828152600d602081815260408084208585526006810183529084206001015486855292909152600480820180547fffffffffffffffffffffffff00000000000000000000000000000000000000001673ffffffffffffffffffffffffffffffffffffffff9094169390931790925560020183905554606490610e2b9047611243565b610e35919061135c565b90506000606460055447610e499190611243565b610e53919061135c565b90506000606460065447610e679190611243565b610e71919061135c565b905060008183610e818647611370565b610e8b9190611370565b610e959190611370565b6000878152600d602052604081206003018290556008805492935090610eba83611298565b909155505060015460405173ffffffffffffffffffffffffffffffffffffffff9091169085156108fc029086906000818181858888f19350505050158015610f06573d6000803e3d6000fd5b506003546040517f9b3a38800000000000000000000000000000000000000000000000000000000081526004810185905273ffffffffffffffffffffffffffffffffffffffff90911690639b3a38809085906024016000604051808303818588803b158015610f7457600080fd5b505af1158015610f88573d6000803e3d6000fd5b5050506000888152600d602052604080822060040154905173ffffffffffffffffffffffffffffffffffffffff909116935084156108fc0292508491818181858888f19350505050158015610fe1573d6000803e3d6000fd5b506000868152600d602090815260409182902060040154825189815291820188905291810183905273ffffffffffffffffffffffffffffffffffffffff9091169033907ff922ce509a4a30f0c0f44c12ac1138303a485d3495d92f9d51f58ae4c21919839060600160405180910390a35050600080547fffffffffffffffffffffff00ffffffffffffffffffffffffffffffffffffffff16905550505050565b60006020828403121561109357600080fd5b813573ffffffffffffffffffffffffffffffffffffffff811681146110b757600080fd5b9392505050565b6000602082840312156110d057600080fd5b5035919050565b7f4e487b7100000000000000000000000000000000000000000000000000000000600052604160045260246000fd5b6000806040838503121561111957600080fd5b8235915060208084013567ffffffffffffffff8082111561113957600080fd5b818601915086601f83011261114d57600080fd5b81358181111561115f5761115f6110d7565b8060051b6040517fffffffffffffffffffffffffffffffffffffffffffffffffffffffffffffffe0603f830116810181811085821117156111a2576111a26110d7565b6040529182528482019250838101850191898311156111c057600080fd5b938501935b828510156111de578435845293850193928501926111c5565b8096505050505050509250929050565b60006020828403121561120057600080fd5b813563ffffffff811681146110b757600080fd5b7f4e487b7100000000000000000000000000000000000000000000000000000000600052601160045260246000fd5b6000817fffffffffffffffffffffffffffffffffffffffffffffffffffffffffffffffff048311821515161561127b5761127b611214565b500290565b6000821982111561129357611293611214565b500190565b60007fffffffffffffffffffffffffffffffffffffffffffffffffffffffffffffffff8214156112ca576112ca611214565b5060010190565b6000602082840312156112e357600080fd5b5051919050565b7f4e487b7100000000000000000000000000000000000000000000000000000000600052603260045260246000fd5b7f4e487b7100000000000000000000000000000000000000000000000000000000600052601260045260246000fd5b60008261135757611357611319565b500690565b60008261136b5761136b611319565b500490565b60008282101561138257611382611214565b50039056fea2646970667358221220be61f70766c65e14c4db4b48d28e058440000079454a8c017b7df9591f440cf464736f6c63430008090033",
  "linkReferences": {},
  "deployedLinkReferences": {}
}